:020000040800F2
:10000000780C002005010008813F0008FF3000083F
:100010007D3F0008550C0008254A0008000000003C
:10002000000000000000000000000000B13F0008D8
:10003000590C000800000000853F00081D4300081F
:100040001F0100081F0100081F0100081F01000810
:100050001F0100081F0100081F0100081F01000800
:100060001F010008670C0008710C00081F01000840
:100070001F0100081F0100081F0100081F010008E0
:100080001F0100081F0100081F0100081F010008D0
:100090001F0100081F0100081F0100087B0C000859
:1000A0001F0100081F0100081F0100088D43000800
:1000B0001F0100089D4300081F0100081F010008E0
:1000C0001F0100081F0100081F0100081F01000890
:1000D0001F0100081F010008E14900081F01000876
:1000E0005B0C00081F0100081F010008DFF810D09A
:1000F00000F042FC00480047F5590008AFF30080CB
:10010000780C00200648804706480047FEE7FEE7D7
:10011000FEE7FEE7FEE7FEE7FEE7FEE7FEE7FEE7B7
:100120008B430008ED000008202A04DB203A21FA66
:1001300002F00021704721FA02F3D040C2F1200200
:10014000914008431946704740EA01039B0703D0DA
:1001500009E008C9121F08C0042AFAD203E011F806
:10016000013B00F8013B521EF9D27047D2B201E0C8
:1001700000F8012B491EFBD270470022F6E710B5AC
:1001800013460A4604461946FFF7F0FF204610BD05
:100190000022CBB20178994200D10246401C0029CE
:1001A000F8D110467047F0B480EA0102D40F420043
:1001B000B2EB410F02D20246084611464A0042D035
:1001C000C30DDDB2C1F3C752AD1A202D35DAC1F32C
:1001D000160141F4000204B15242C5F1200602FAB0
:1001E00006F12A411044B3EBD05F23D0C4B1012DF6
:1001F000A0EBC35009DCF0BC4FF0004202EAC3524E
:10020000DBB200F5000000F0DBBA400000F18070C6
:1002100000EBC350A0F1807040EAD170490009E0C2
:10022000490841EAC071A0EBC35000F50000400846
:1002300000EBC350F0BC00F0BABA6142012202EBFD
:100240004101001BF6E7F0BC704781F00041AAE7CE
:1002500080F00040A7E780EA010210B502F00043F9
:10026000400022D04A001FD0010E01EB1261C0F302
:100270005600C2F3560240F4000042F40002A0FB14
:10028000022000047F39140400D0401C50EA1240C0
:1002900001D44000491EC2B20C0604EBD010401C31
:1002A0004008802A02D003E0002010BD20F00100A9
:1002B000002900DA0020184310BD30B480EA0102A2
:1002C00002F0004530F0004221F0004013D090B120
:1002D000C30DD40DC2F31601C0F31600E41A41F4A5
:1002E000000140F400027D34914201D3641C00E01F
:1002F0004900002C02DA30BC002070474FF40000A7
:100300000023914201D3891A034340084FEA410177
:10031000F7D151B1914202D14FF0004105E002D234
:100320004FF0010101E06FF0010103EBC4502844DC
:1003300030BC00F03CBA2DE9FE4F804681EA030054
:10034000C00F0C46009021F0004123F00045B8EBAF
:100350000200A94105D24046214690461C460B4664
:10036000024623F00040104347D0270DC7F30A0090
:10037000C3F30A510290401A019040286BDAC3F38C
:10038000130040F4801B0098924620B10023D2EB6A
:10039000030A63EB0B0B01985946C0F1400250462B
:1003A00000F0E4F906460D4650465946019A00F021
:1003B000ECF910EB08006141002487EA115284EA4D
:1003C000E7731A4340D0009A62B3019A012A4FEAB8
:1003D000075215DC001B61EB02014FF0004202EAFC
:1003E0000752CDE90042001C41F5801132462B46F0
:1003F00000F023FA03B0BDE8F08F40462146F9E74C
:10040000001B61EB0201001C41F5801300185B41E9
:100410002018A2F5001747EB030140EAD570B61982
:100420006D4111E06D084FEA360645EAC0754FEAA6
:100430000752001B61EB0201001C41F580114908C5
:100440004FEA30000019514132462B4603B0BDE857
:10045000F04F00F0E3B90098012240000023D0EBF8
:10046000020263EBE073009821464FEAE074B8EBB8
:10047000000061EB0401E9E783F000435BE781F0F2
:10048000004158E72DE9FE4F81EA030404F00044DF
:1004900021F0004100944FF0000B23F0004350EA9C
:1004A00001045ED052EA03045BD0C3F30A54C1F3E3
:1004B0000A552C44A4F2F3340194A0FB0254C1F376
:1004C000130141F48011C3F3130343F4801301FBC0
:1004D000024400FB034E840A970A44EA815447EA27
:1004E0008357A4FB076802958D0A05FB07854FEA31
:1004F000932C04FB0C542705029D4FEA065847EA4B
:100500001637B5EB08056EEB070C870E920E47EA1F
:10051000811742EA8312A7FB0201B6EB0B0164EBE1
:1005200000042B0D43EA0C335E1844EB1C50DA46F2
:100530005146E7FB0201C5F313044FEA0B3343EACC
:1005400014534FEA0432019C43EA0603A4F10C045D
:100550000294009CCDE900B400F06FF903B0BDE84F
:10056000F08F00200146F9E72DE9F04D81EA030400
:1005700004F0004B21F0004514464FF0000A23F030
:10058000004150EA050220D054EA01021DD0C5F313
:100590000A570246C5F31303C1F31300C1F30A5609
:1005A00040F4801543F48013A7EB0608101BD646D1
:1005B00008F2FD3873EB050002D308F1010801E0F1
:1005C00092185B41B8F1000F03DA00200146BDE844
:1005D000F08D00204FF48011064684460EE0171B74
:1005E00073EB050705D3121B63EB050306434CEAC7
:1005F000010C49084FEA300092185B4150EA0107AC
:10060000EDD152EA030012D082EA040083EA050128
:10061000084305D0101BAB4106D20122002306E09F
:1006200000224FF0004302E06FF0010253101AEB7A
:1006300006004CEB085110EB0A0041EB0B01BDE842
:10064000F04D00F0EBB80EB540F2334102910021BD
:10065000CDE900110A460B4600F0EFF803B000BDEB
:1006600020F00040C10DC0F3160040F400007F29C7
:1006700001DA00207047962903DCC1F19601C840D9
:100680007047963988407047C1F30A5210B5C1F3DC
:10069000130140F2FF3341F480119A4201DA002045
:1006A00010BD40F233439A42A2F2334203DC52427D
:1006B000FFF73AFD10BD904010BD00F0004230F051
:1006C00000400AD0C10D01F56071C0F3160042EA86
:1006D0000151C2084007114370470020014670478E
:1006E00001F0004330B421F0004150EA010206D08D
:1006F0000A0DA2F56072C1F31301002A02DC30BCBE
:1007000000207047440F44EAC104C100E01830BC27
:1007100000EBC25000F04BB8002801DBC0F10040F4
:10072000002901DBC1F1004181427047002801DB53
:10073000C0F10040002901DBC1F10041884270474F
:1007400030B50B46014600202022012409E021FAA1
:1007500002F59D4205D303FA02F5491B04FA02F59E
:100760002844151EA2F10102F1DC30BD202A04DB71
:10077000203A00FA02F1002070479140C2F12003B4
:1007800020FA03F3194390407047202A06DBCB1769
:10079000203A41FA02F043EAE07306E041FA02F33C
:1007A000D040C2F120029140084319467047002909
:1007B000A8BF7047401C490008BF20F001007047E7
:1007C00010B4B0FA80FC00FA0CF050EA010404BF47
:1007D00010BC704749B1CCF1200421FA04F411FA9D
:1007E0000CF118BF012121430843A3EB0C01CB1DE1
:1007F0004FEA00614FEA102042BF002010BC704752
:1008000000EBC35010440029A4BF10BC7047401C2B
:10081000490008BF20F0010010BC704710B5141E3D
:1008200073F1000408DA401C41F1000192185B41A9
:100830001A4301D120F0010010BD2DE9F04D924680
:100840009B4611B1B1FA81F202E0B0FA80F2203297
:100850009046FFF78BFF04460F4640EA0A0041EA44
:100860000B0153465A46084313D0114653EA010080
:1008700019D0C8F140025046FFF756FC05460E4617
:10088000504659464246FFF771FF084305D0012004
:1008900004E020463946BDE8F08D0020054346EAD5
:1008A000E0762C4337430A986305E40AA0EB08007E
:1008B0000022FD0A44EA47540A3002D500200146CE
:1008C000E9E7010510196941DDE9084500196941A9
:1008D000BDE8F04DA2E72DE9F04D00231A461B1AA2
:1008E0008A4103DB00200146BDE8F08DC1F30A52C6
:1008F000C1F3130141F480154FF0000BD10702D171
:1009000000186D41521E0027044640F2FF11384680
:1009100001EB620A3E468046024600204FF48011F9
:10092000FFF702FCC2197141BB1846EB0100B4EBA2
:10093000030C75EB000C04D3E41A65EB00051746B5
:100940000E46241908F101006D4180463428E3DD8C
:10095000F91946EB0600091BA84103D24FF0FF32FC
:10096000134601E0002213461BEB070046EB0A5139
:10097000BDE8F04DFFF752BF064C074D06E0E068BA
:1009800040F0010394E8070098471034AC42F6D3D6
:10099000FFF7B0FBF47C0008147D000870B58C18DC
:1009A00010F8015B15F0070301D110F8013B2A1183
:1009B00006D110F8012B03E010F8016B01F8016B70
:1009C0005B1EF9D12B0705D40023521E0DD401F86C
:1009D000013BFAE710F8013BCB1A921C03E013F835
:1009E000015B01F8015B521EF9D5A142D8D300206A
:1009F00070BD000010B5002004F016F80446582C15
:100A000009D05821002004F025F808480178012079
:100A100004F020F804E0012004F006F8034908700F
:100A20000248017802A004F02DF810BD410000201A
:100A300049443A2025640A0010B54348007870B351
:100A400042480078012806D002280DD0032814D08F
:100A5000042823D11AE000203C4908703C48007863
:100A6000401C3B49087019E000203849087038489C
:100A70000078401E3649087010E0002033490870A5
:100A800033480178012003F0E5FF07E000202F49FB
:100A900008702D49087002F05BFE00BF53E0FFE7CD
:100AA0002948007800284ED128480078012806D02F
:100AB00002281CD0032833D0042843D139E0002079
:100AC0002249087023480078401C40B22149087030
:100AD000084690F90000142801DD142008701D4814
:100AE00090F9000000F5FA701B4988802AE0002088
:100AF0001649087017480078401E40B21549087022
:100B0000084690F9000010F1140F01DAEC2008708B
:100B1000104890F9000000F5FA700F49888011E044
:100B200000200A4908700B4890F9000003F012FBFE
:100B300008E000200549087001200349087002F010
:100B400007FE00BF00BF10BD4200002000000020D3
:100B50004100002043000020FA00002010B502F000
:100B60004BFE10BD1CB53548007890B10120102314
:100B700033A2194600901E2003F02CF8012010210A
:100B80000323CDE900102F4802783C2002F0DCFF5F
:100B90004EE02A48007800284AD103240FE00120C3
:100BA00004EBC4013622C2EB41011C310090C8B2F3
:100BB000102322460A2102F067FF601CC4B2072CF2
:100BC000EDDB0120102320A2202100900A2003F059
:100BD00001F81F4890F90000002815DA01201023C1
:100BE000582220210090322002F0B0FE0120102176
:100BF0000323CDE90010164890F90000424220215D
:100C00003C2002F0A1FF13E0012010232022114616
:100C10000090322002F09AFE012010210323CDE93A
:100C200000100B4890F9002020213C2002F08CFF9E
:100C300002F066FE0A2000F0ABF81CBD4200002066
:100C400049443A00410000207365743A00000000F6
:100C50004300002000BFFEE7704710B54FF400408E
:100C600000F000F910BD10B5082000F0FBF810BD31
:100C700010B5102000F0F6F810BD10B5202000F0DF
:100C8000F1F810BD72B600BFFEE70146002291F8F0
:100C90002100022808D00420886300BF002081F8CA
:100CA000200000BF012070470868006820F00E0097
:100CB0000B6818600868006820F001000B68186075
:100CC00091F8403001209840CB6B5860012081F8AA
:100CD000210000BF002081F8200000BF1046E2E79D
:100CE00070B50446002594F82100022803D00420A2
:100CF000A063012548E02068006820F00E0021680C
:100D000008602068006820F00100216808601F4921
:100D10002068884201D1012026E01C491431206856
:100D2000884201D110201FE01849283120688842EC
:100D300001D1801518E015493C312068884201D165
:100D4000801411E0114950312068884202D14FF4DB
:100D5000803009E00D4964312068884202D14FF4A7
:100D6000801001E04FF08070084908394860012088
:100D700084F8210000BF002084F8200000BF606BD1
:100D800010B12046616B8847284670BD08000240BC
:100D900070B5044600F012FA06462546681C10B1EC
:100DA00004480078054400BF00F008FA801BA84200
:100DB000FAD370BD0C00002010B50446B4F5004F06
:100DC00005D0082C03D0102C01D0202C32D10420C7
:100DD000FFF7DEFF4FF40041174800F0E1F930B9AA
:100DE00016A003F04FFE01201649087022E00821EA
:100DF000154800F0D5F930B914A003F043FE0220E5
:100E00001049087016E010210F4800F0C9F930B9F8
:100E100010A003F037FE03200A4908700AE02021E1
:100E2000094800F0BDF928B90CA003F02BFE0420FE
:100E30000449087010BD0000000801404B6579317D
:100E40000000000000000020000C01404B657932DA
:100E5000000000004B657933000000004B657934D9
:100E60000000000010B5044604480068204020B18E
:100E7000024804602046FFF79FFF10BD14040140A4
:100E80002DE9F8470346002294466EE14FF0010831
:100E900008FA02F4D1F8008008EA0400A0427DD1EB
:100EA000DFF8DCA2D1F80480A8EB0A09D0453AD0DB
:100EB00014DCB8F1030F50D009DCB8F1000F31D0C9
:100EC000B8F1010F1CD0B8F1020F49D120E0B8F100
:100ED000110F18D0B8F1120F42D11EE0B9F5881FDA
:100EE00025D006DCB9F5803F20D0B9F5801F37D179
:100EF0001AE0B9F5001F18D0B9F5041F30D117E07A
:100F0000D1F80CC02DE0D1F80C8008F1040C28E0D9
:100F1000D1F80C8008F1080C23E0D1F80C8008F11E
:100F20000C0C1EE000BF00BF00BF00BF00BF00BF31
:100F3000D1F80880B8F1000F02D14FF0040C0BE09B
:100F4000D1F80880B8F1010F03D14FF0080C1C61F3
:100F500002E04FF0080C5C6103E04FF0000C00E091
:100F600000BF00BFFF2801D8984601E003F1040844
:100F70004646FF2802D84FEA820803E0A2F108089B
:100F80004FEA88084746D6F800804FF00F0909FA63
:100F900007F928EA09080CFA07F900E088E048EAAE
:100FA0000908C6F80080D1F8048008F08058B8F12C
:100FB000805F7DD100BFDFF8CC81D8F8188048F081
:100FC0000108DFF8C091C9F81880C846D8F8188021
:100FD00008F00108CDF8008000BF00BF4FEAB93823
:100FE0004FEA920958F829504FEA82784FEA187967
:100FF0004FF00F0808FA09F825EA0805DFF888819C
:10100000434502D14FF0000816E0DFF880814345E8
:1010100002D14FF001080FE0DFF87481434502D19F
:101020004FF0020808E0DFF86C81434502D14FF031
:10103000030801E04FF004084FEA82794FEA19797A
:1010400008FA09F848EA0505DFF84C814FEA9209E9
:1010500048F82950D1F8048008F48018B8F5801FAA
:101060000AD1DFF83881D8F8008048EA0008DFF8B4
:101070002C91C9F8008009E0DFF82081D8F80080C1
:1010800028EA0008DFF81491C9F80080D1F804803C
:1010900008F40018B8F5001F10D1DFF8008108F13E
:1010A0000408D8F8008048EA0008DFF8F09000E073
:1010B0005AE009F10409C9F800800DE0DFF8DC808E
:1010C00008F10408D8F8008028EA0008DFF8CC907E
:1010D00009F10409C9F80080D1F8048008F4003847
:1010E000B8F5003F0ED1DFF8B480A8F10408D8F8B5
:1010F000008048EA0008DFF8A490A9F10409C9F8C3
:1011000000800DE0DFF89480A8F10408D8F8008092
:1011100028EA0008DFF88490A9F10409C9F80080E2
:10112000D1F8048008F48038B8F5803F0ED1DFF89C
:101130006C80A8F10808D8F8008048EA0008DFF8B9
:101140005C90A9F10809C9F800800DE0DFF84C8037
:10115000A8F10808D8F8008028EA0008DFF83C90D9
:10116000A9F10809C9F80080521CD1F8008028FABA
:1011700002F8B8F1000F7FF489AEBDE8F8870000EF
:10118000000011100010024000080140000C014056
:101190000010014000140140080001400804014013
:1011A000024693680B400BB1012000E0002070471D
:1011B0000AB1016101E00B04036170470148006856
:1011C000704700000400002070B504460CB90120EF
:1011D00070BD94F83D0028B9002084F83C002046FA
:1011E00000F0FEFB242084F83D002068006820F019
:1011F0000100216808602068006840F40040216810
:1012000008602068006820F400402168086000F051
:10121000C1FD05465C496068884206D85B48854246
:1012200001D2012007E0002005E05948854201D2A3
:10123000012000E00020012800D1C9E75548B5FB96
:10124000F0F62068406820F03F0030432168486095
:101250004D496068884201D8701C07E04FF49670D1
:1012600070434FF47A71B0FBF1F0401C2168096AB9
:1012700021F03F01084321680862434960688842C1
:1012800014D8681E61684900B0FBF1F0401CC0F33F
:101290000B00042801D204203DE0681E616849006B
:1012A000B0FBF1F0401CC0F30B0034E0A06838B98B
:1012B000681E616801EB4101B0FBF1F0401C0AE0DF
:1012C000681E616801EBC10202EB0111B0FBF1F095
:1012D000401C40F48040C0F30B0008B901201AE024
:1012E000A06848B9681E616801EB4101B0FBF1F0EC
:1012F000401CC0F30B000CE0681E616801EBC102EA
:1013000002EB0111B0FBF1F0401CC0F30B0040F404
:10131000804040F400402168C9694CF6FF72914357
:1013200008432168C861D4E90701084321680968B6
:1013300021F0C001084321680860D4E90310084384
:101340002168896848F2FF32914308432168886028
:10135000D4E9050108432168C96821F0FF01084369
:101360002168C8602068006840F0010021680860BA
:1013700000202064202084F83D000020206384F8B1
:101380003E0000BF24E70000A086010080841E000C
:1013900000093D0040420F002DE9F843044689460C
:1013A00016461F46DDF82080FFF708FF054694F833
:1013B0003D0020287ED11923012251492046009565
:1013C00002F071F810B10220BDE8F88300BF94F874
:1013D0003C00012801D10220F6E7012084F83C00FE
:1013E00000BF2068006800F0010028B9206800688C
:1013F00040F00100216808602068006820F4006067
:1014000021680860212084F83D00102084F83E0007
:101410000020206466626785608D20853948E0621F
:101420002B4642464946204601F08AFE08B101207B
:10143000CAE700BF00200090206840690090206843
:101440008069009000BF00BF44E02A464146204624
:1014500002F04AF950B1206C042805D120680068D8
:1014600040F40070216808600120ADE7606A0078F0
:1014700021680861606A401C6062608D401E608562
:10148000208D401E208520684069C0F3800070B127
:10149000208D60B1606A007821680861606A401C34
:1014A0006062608D401E6085208D401E20852A462A
:1014B000414600E022E0204601F0C2FF50B1206C1E
:1014C000042805D12068006840F400702168086095
:1014D000012079E7208D0028B7D12068006840F40A
:1014E000007021680860202084F83D00002084F806
:1014F0003E0000BF84F83C0000BF65E7022063E7C0
:10150000020010000000FFFF2DE9FE4F04460F46C9
:1015100090469946DDE90CAB0E9E00200290FFF745
:101520004DFE054694F83D00202872D11923012272
:10153000CE492046009501F0B6FF10B10220BDE86B
:10154000FE8F00BF94F83C00012801D10220F6E78D
:10155000012084F83C0000BF2068006800F0010012
:1015600028B92068006840F0010021680860206800
:10157000006820F4006021680860222084F83D00A3
:10158000402084F83E0000202064C4F824A0A4F881
:101590002AB0608D2085B648E0624B464246394607
:1015A0002046CDE9006501F02BFE08B10120C6E719
:1015B000208D88B900BF002001902068406901900B
:1015C00020688069019000BF00BF2068006840F477
:1015D0000070216808604BE0208D01281AD1206836
:1015E000006820F480602168086072B600BF0020A7
:1015F000019020684069019020688069019000BFD7
:1016000000BF2068006840F400702168086062B67E
:101610002EE029E1208D022819D12068006840F4CD
:1016200000602168086072B600BF00200190206849
:101630004069019020688069019000BF00BF206868
:10164000006820F480602168086062B610E02068BD
:10165000006840F480602168086000BF00200190AD
:1016600020684069019020688069019000BF00BF38
:10167000EBE0208D03287DD8208D012815D12A4646
:101680003146204601F0EBFF08B1012057E7206802
:101690000069616A0870606A401C6062208D401EAB
:1016A0002085608D401E6085CFE0208D02282CD1E2
:1016B000334600226F492046009501F0F4FE08B140
:1016C00001203CE772B62068006840F40070216891
:1016D000086020680069616A0870606A401C606286
:1016E000208D401E2085608D401E608562B620687A
:1016F0000069616A0870606A401C6062208D401E4B
:101700002085608D401E60859FE033460022594948
:101710002046009501F0C7FE08B101200FE72068C0
:10172000006820F480602168086072B62068006953
:10173000616A0870606A401C6062208D401E2085CE
:10174000608D401E60854C4800681921B0FBF1F0A7
:101750004FF47A71B0FBF1F0C0EBC00000EB8000F9
:10176000029000BF0298401E02900298A8B9002083
:10177000206300E039E0202084F83D00002084F858
:101780003E00206C40F02000206462B600BF0020C4
:1017900084F83C0000BF0120D1E620684069C0F316
:1017A00080000028DED02068006840F400702168C6
:1017B000086020680069616A0870606A401C6062A5
:1017C000208D401E2085608D401E608562B6206899
:1017D0000069616A0870606A401C6062208D401E6A
:1017E0002085608D401E60852FE02A4631462046C8
:1017F00001F035FF08B10120A1E620680069616AA7
:101800000870606A401C6062208D401E2085608DDB
:10181000401E608520684069C0F38000A8B1208D1B
:10182000032805D12068006820F4806021680860E2
:1018300020680069616A0870606A401C6062208DDF
:10184000401E2085608D401E6085208D00287FF41D
:1018500010AF202084F83D00002084F83E0000BF37
:1018600084F83C0000BF6AE6022068E6020010002F
:101870000000FFFF04000100100000202DE9FC5FC4
:1018800004460F4690469946DDE90CAB0E9EFFF7E5
:1018900095FC054694F83D0020287DD119230122AE
:1018A0004D492046009501F0FEFD10B10220BDE833
:1018B000FC9F00BF94F83C00012801D10220F6E70C
:1018C000012084F83C0000BF2068006800F001009F
:1018D00028B92068006840F001002168086020688D
:1018E000006820F4006021680860212084F83D0031
:1018F000402084F83E0000202064C4F824A0A4F80E
:101900002AB0608D20853548E0624B464246394614
:101910002046CDE9006501F023FD08B10120C6E7AE
:1019200031E02A463146204601F0DEFE50B1206CFF
:10193000042805D12068006840F400702168086020
:101940000120B4E7606A007821680861606A401C81
:101950006062208D401E2085608D401E608520685D
:101960004069C0F3800070B1208D60B1606A00787A
:1019700021680861606A401C6062208D401E2085DD
:10198000608D401E6085208D0028CAD12A463146D0
:10199000204601F055FD00E01CE050B1206C042809
:1019A00005D12068006840F40070216808600120BB
:1019B0007DE72068006840F40070216808602020FE
:1019C00084F83D00002084F83E0000BF84F83C000D
:1019D00000BF6CE702206AE7020010000000FFFF72
:1019E00010B586B004460020029003900490059044
:1019F00016492068884226D100BF1548806940F00A
:101A00000800134988610846806900F008000190C9
:101A100000BF00BF4FF440600290122003900320EB
:101A2000059002A90B48FFF72BFA00BF0848C069D0
:101A300040F480000649C8610846C06900F480008F
:101A4000019000BF00BF06B010BD0000005800406C
:101A500000100240000C0140034800680349097867
:101A60000844014908607047040000200C00002071
:101A700010B50848006840F01000064908600320CF
:101A800000F0A8F8002000F007F800F02BF8002084
:101A900010BD00000020024070B504460E480078DA
:101AA0004FF47A71B1FBF0F00C490968B1FBF0F525
:101AB000284600F0F9FB08B1012070BD102C07D2B8
:101AC00000222146501E00F047F80548046001E05E
:101AD0000120F2E70020F0E70C00002010000020B9
:101AE0000800002008B500BF1148806940F00100DF
:101AF0000F4988610846806900F00100009000BF2E
:101B000000BF00BF0846C06940F08050C861084669
:101B1000C06900F08050009000BF00BF00BF0549C1
:101B2000486820F0E06040F00070486000BF08BDE9
:101B3000001002400000014001460846002809DB71
:101B400000F01F0301229A4043099B0003F1E023A8
:101B5000C3F8002100BF70472DE9F05F80460D46B5
:101B60001646002702F09EFF074639462A463346AE
:101B700001F00700C0F1070ABAF1040F02D94FF0D3
:101B8000040A01E0C0F1070AD14600F1040ABAF1E3
:101B9000070F02D24FF0000A01E0A0F1030AD44679
:101BA0004FF0010A0AFA09FAAAF1010A0AEA020A3E
:101BB0000AFA0CFA4FF0010B0BFA0CFBABF1010B1C
:101BC0000BEA030B4AEA0B042146404602F072FF7F
:101BD000BDE8F09F00BF00F00702064B19684FF602
:101BE000FF031940044B0B4343EA0221014B1960E8
:101BF00000BF70470CED00E00000FA0570B5044628
:101C00000D460CB9012070BD5A48006800F007006D
:101C1000A8420ED25748006820F0070028435549D3
:101C200008600846006800F00700A84201D00120C3
:101C3000E9E7207800F0020002281DD1207800F0AA
:101C40000400042805D14C48406840F4E0604A494B
:101C50004860207800F00800082805D14648406810
:101C600040F46050444948604348406820F0F00028
:101C7000A168084340494860207800F0010078B32B
:101C80006068012806D13C48006800F4003090B933
:101C90000120B8E76068022806D13748006800F0E4
:101CA000007040B90120AEE73348006800F0020040
:101CB00008B90120A7E73048406820F003006168B8
:101CC00008432D494860FFF779FA064609E0FFF717
:101CD00075FA801B41F28831884202D9032092E7CD
:101CE00007E02548406800F00C006168B0EB810F08
:101CF000EDD12048006800F00700A8420ED91D4829
:101D0000006820F0070028431A4908600846006868
:101D100000F00700A84201D0012074E7207800F00D
:101D20000400042807D11448406820F4E060E1680A
:101D3000084311494860207800F00800082808D1BD
:101D40000D48406820F46050216940EAC1000A490A
:101D5000486000F03FF808494968C1F30311074A99
:101D6000515CC8400649086006480068FFF794FEC9
:101D7000002048E7002002400010024012600008E6
:101D80001000002008000020014800687047000093
:101D90001000002000B5FFF7F7FF04494968C1F3C0
:101DA0000221034A515CC84000BD000000100240FF
:101DB0002260000800B5FFF7E7FF04494968C1F356
:101DC000C221034A515CC84000BD0000001002401F
:101DD0002260000870B500210022002400230020AA
:101DE000134D696801F00C05F5B1042D02D0082DE2
:101DF00019D101E00F4819E00F4DC1F38346AB5DE7
:101E000001F4803555B10A4D6D68C5F340450B4E60
:101E1000725D084D5D43B5FBF2F402E0084D03FB33
:101E200005F4204602E000BF024800BF00BF70BDBD
:101E30000010024000127A000060000810600008E4
:101E400000093D00F8B504460CB90120F8BD207822
:101E500000F00100002878D0F848406800F00C003D
:101E600004280CD0F548406800F00C00082811D177
:101E7000F248406800F48030B0F5803F0AD1EF4866
:101E8000006800F4003000285FD0606800285CD152
:101E90000120DBE700BF6068B0F5803F06D1E7486E
:101EA000006840F48030E549086028E0606858B96F
:101EB000E248006820F48030E04908600846006885
:101EC00020F4802008601AE06068B0F5A02F0BD1E4
:101ED000DA48006840F48020D84908600846006865
:101EE00040F4803008600AE0D448006820F4803074
:101EF000D24908600846006820F48020086000BFCE
:101F0000606888B1FFF75AF9054606E0FFF756F911
:101F1000401B642801D9032098E7C848006800F4F2
:101F200000300028F2D010E0FFF748F9054606E03F
:101F3000FFF744F9401B642801D9032086E7BF4816
:101F4000006800F400300028F2D1207800F0020090
:101F5000022857D1B948406800F00C0050B1B7488A
:101F6000406800F00C00082818D1B448406800F41C
:101F7000803098B9B148006800F0020020B12069B3
:101F8000012801D0012061E7AC48006820F0F8008A
:101F9000616940EAC100A949086033E02069E8B1FD
:101FA0000120A7490860FFF709F9054606E0FFF799
:101FB00005F9401B022801D9032047E79F48006824
:101FC00000F002000028F2D09C48006820F0F800E1
:101FD000616940EAC1009949086013E0002098490E
:101FE0000860FFF7EBF8054606E0FFF7E7F8401B4F
:101FF000022801D9032029E79048006800F0020078
:102000000028F2D1207800F0080008282DD1A0691E
:10201000B8B101208B490860FFF7D0F8054606E00B
:10202000FFF7CCF8401B022801D903200EE78348B4
:10203000406A00F002000028F2D0012001F0A4FF65
:1020400013E000207F490860FFF7B8F8054606E076
:10205000FFF7B4F8401B022801D90320F6E67748C1
:10206000406A00F002000028F2D1207800F004005D
:10207000042873D100277148C06900F0805070B9FE
:1020800000BF6E48C06940F080506C49C861084686
:10209000C06900F08050009000BF00BF01276A486F
:1020A000006800F48070B0B96748006840F4807040
:1020B00065490860FFF782F8054606E0FFF77EF8FD
:1020C000401B642801D90320C0E65F48006800F483
:1020D00080700028F2D000BFE068012806D1574880
:1020E000006A40F001005549086227E0E06858B9ED
:1020F0005248006A20F00100504908620846006A10
:1021000020F00400086219E0E06805280BD14B4874
:10211000006A40F00400494908620846006A40F03D
:10212000010008620AE04548006A20F001004349C6
:1021300008620846006A20F00400086200BFE068F8
:10214000A0B1FFF73BF8054609E0FFF737F8401B61
:1021500041F28831884202D9032077E622E03748ED
:10216000006A00F002000028EFD012E0FFF726F826
:10217000054608E0FFF722F8401B41F2883188420B
:1021800001D9032062E62D48006A00F00200002811
:10219000F0D1012F05D12948C06920F0805027498E
:1021A000C86100BFE069C8B32448406800F00C0073
:1021B000082860D0E069022848D10020204908663C
:1021C000FEF7FCFF054606E0FEF7F8FF401B02287D
:1021D00001D903203AE61948006800F00070002891
:1021E000F2D1206AB0F5803F07D11448406820F44E
:1021F0000030A168084311494860D4E90801084348
:102200000E49496821F4741108430C4948600120C3
:102210000B490866FEF7D2FF054607E03DE0FEF7F2
:10222000CDFF401B022801D903200FE603480068B8
:1022300000F000700028F2D02FE0000000100240F3
:1022400000004242800442420070004000201449D5
:102250000866FEF7B3FF054606E0FEF7AFFF401B3A
:10226000022801D90320F1E50E48006800F0007053
:102270000028F2D111E0E069012800D1E6E5094823
:10228000466806F48031206A814204D106F4701158
:10229000606A814201D00120D8E50020D6E5000027
:1022A000000042420010024070B504462546681EF8
:1022B000B0F1807F01D301200FE0681E4FF0E021D4
:1022C00048610F214FF0FF3002F0F4FB00204FF087
:1022D000E021886107200861002070BD70477047C9
:1022E00010B50346002200BF93F83C00012801D13D
:1022F000022010BD012083F83C0000BF22F0FF0047
:10230000CC6840EA040222F440708C6840EA04027F
:1023100022F480604C6840EA040222F400600C68F9
:1023200040EA040222F480500C6940EA040222F4DC
:1023300000504C6940EA040222F48040CC6940EA33
:1023400004021868426400BF002083F83C0000BF0C
:1023500000BFCEE730B502460B4600BF92F83C0006
:10236000012801D1022030BD012082F83C0000BFCD
:10237000022082F83D00106844681068816824F0EB
:1023800070041868044310684460104D1068A84237
:102390000BD01068B0F1804F07D00D4D1068A842E7
:1023A00003D00C4D1068A84205D121F08001586877
:1023B000014310688160012082F83D0000BF0020C9
:1023C00082F83C0000BF00BFCDE70000002C0140B8
:1023D000000400400008004010B504460CB901207C
:1023E00010BD94F83D0028B9002084F83C00204638
:1023F00000F026F8022084F83D00211D206801F03D
:10240000E1FF012084F8460000BF84F83E0001216E
:102410003F200155402001554120015500BF00BF1C
:10242000012084F8420043200155442001554520F5
:10243000015500BF012084F83D000020D0E70000D6
:1024400038B504461A492068884216D100BF194899
:10245000806940F40060174988610846806900F48B
:102460000060009000BF00BF002201211B20FFF789
:1024700073FB1B20FFF760FB19E00F4920688842BF
:1024800015D100BF0B48C06940F002000949C8617E
:102490000846C06900F00200009000BF00BF0022A3
:1024A00011461D20FFF758FB1D20FFF745FB38BDE7
:1024B000002C01400010024000040040014691F849
:1024C0003D00012801D001207047022081F83D0025
:1024D0000868C06840F001000B68D860124B0868BB
:1024E00098420BD00868B0F1804F07D00F4B0868B6
:1024F000984203D00E4B086898420CD10868806857
:1025000000F00702062A0CD00868006840F00100BD
:102510000B68186005E00868006840F001000B686F
:1025200018600020D0E70000002C014000040040AB
:102530000008004001460868C06820F001000A68F1
:10254000D06000BF0868006A41F21112104050B913
:102550000868006A9210104028B90868006820F0E6
:1025600001000A68106000BF012081F83D000020D2
:1025700070472DE9F04104460D46002700BF94F84E
:102580003C00012802D10220BDE8F081012084F83E
:102590003C0000BF022084F83D002068866826F0D9
:1025A000770626F47F46206886602868502833D056
:1025B0000CDC202850D004DC00284BD0102851D14E
:1025C00049E0302849D040284CD139E060282DD04E
:1025D000702807D0B0F5805F03D0B0F5005F41D11F
:1025E0000DE041E0D5E902136A68206801F03DFF83
:1025F0002068866846F077062068866034E0D5E972
:1026000002136A68206801F030FF2068806840F497
:1026100080402168886027E0EA686968206801F0E6
:10262000F5FF5021206801F02BFF1DE0EA68696882
:10263000206801F0FEFF6021206801F021FF13E017
:10264000EA686968206801F0E1FF4021206801F034
:1026500017FF09E000BF00BF00BF2968206801F034
:102660000FFF01E0012700BF00BF012084F83D00FB
:1026700000BF002084F83C0000BF384684E7704764
:1026800070B504462068C5682068066906F0020037
:10269000022819D105F00200022815D1401F216837
:1026A0000861012020772068806900F0030018B1DC
:1026B0002046FFF7E4FF05E0204600F0FBF8204647
:1026C00000F088FA0020207706F00400042819D1D1
:1026D00005F00400042815D1C043216808610220D8
:1026E00020772068806900F4407018B12046FFF719
:1026F000C6FF05E0204600F0DDF8204600F06AFA4B
:102700000020207706F00800082819D105F00800FD
:10271000082815D1C043216808610420207720686B
:10272000C06900F0030018B12046FFF7A8FF05E0DC
:10273000204600F0BFF8204600F04CFA0020207739
:1027400006F01000102819D105F01000102815D13E
:10275000C04321680861082020772068C06900F420
:10276000407018B12046FFF78AFF05E0204600F0D0
:10277000A1F8204600F02EFA0020207706F0010094
:1027800048B105F0010030B16FF001002168086127
:10279000204600F020FA06F08000802809D105F0DC
:1027A0008000802805D1C043216808612046FFF7DA
:1027B00095FD06F04000402809D105F04000402872
:1027C00005D1C04321680861204600F005FA06F0F3
:1027D0002000202809D105F02000202805D1C04381
:1027E000216808612046FFF77AFD70BD10B586B0FC
:1027F0000446002002900390049005900E49206842
:10280000884216D100BF0D48806940F004000B4992
:1028100088610846806900F00400019000BF00BF95
:102820008815029002200390059002A90448FEF743
:1028300027FB06B010BD0000002C01400010024034
:10284000000801402DE9F04104460E4615460027D8
:1028500000BF94F83C00012802D10220BDE8F081BD
:10286000012084F83C0000BF35B1042D09D0082DAB
:102870000CD00C2D14D10EE03146206801F00AFE78
:1028800010E03146206801F035FE0BE0314620684B
:1028900001F064FE06E03146206801F093FE01E09D
:1028A000012700BF00BF00BF002084F83C0000BF2C
:1028B0003846D3E710B504462149206888423DD107
:1028C0002048007880B920480068406B1F4909689B
:1028D0001F4A1268114400EB51001B490968486304
:1028E00001201849087029E01648007830B31648CE
:1028F0000068406B1549096800EB510012490968EE
:10290000486300200F49087001F054FB0F4908602C
:102910000846007800F001000D4908600D48C069C4
:10292000401C0C49C8610846C0690968884205D343
:1029300001F0E6FC0020074981F8200010BD0000EE
:10294000002C014040000020A401002014000020C1
:10295000180000201C00002010B504460CB901200E
:1029600010BD94F83D0028B9002084F83C002046B2
:1029700000F025F8022084F83D00211D206801F0B8
:1029800021FD012084F8460000BF84F83E000121AB
:102990003F200155402001554120015500BF00BF97
:1029A000012084F842004320015544200155452070
:1029B000015500BF012084F83D000020D0E770479A
:1029C000F0B504460D46002615B994F83E000BE01C
:1029D000042D02D13F20005D06E0082D02D14020E9
:1029E000005D01E04120005D012801D00120F0BD23
:1029F0001DB9022084F83E000EE0042D03D102210F
:102A00003F20015508E0082D03D102214020015547
:102A100002E002214120015535B1042D0BD0082DD3
:102A200010D00C2D1CD114E02068C06840F00200CA
:102A30002168C86016E02068C06840F00400216882
:102A4000C8600FE02068C06840F008002168C860D6
:102A500008E02068C06840F010002168C86001E00C
:102A6000012600BF00BF76BB01222946206801F085
:102A7000EBFC19492068884201D1012000E00020C8
:102A800028B12068406C40F4004021684864124935
:102A9000206888420BD02068B0F1804F07D00F49E2
:102AA0002068884203D00E49206888420CD12068F3
:102AB000806800F00707062F0CD02068006840F0FF
:102AC00001002168086005E02068006840F001000E
:102AD0002168086030468AE7002C0140000400406D
:102AE0000008004070B504460D46002635B1042D9F
:102AF0000BD0082D10D00C2D1CD114E02068C0681C
:102B000020F002002168C86016E02068C06820F04C
:102B100004002168C8600FE02068C06820F0080049
:102B20002168C86008E02068C06820F010002168B3
:102B3000C86001E0012600BF00BF002E46D1002280
:102B40002946206801F080FC21492068884201D193
:102B5000012000E0002090B100BF2068006A41F22F
:102B60001111084050B92068006A8910084028B93E
:102B70002068406C20F400402168486400BF00BF1A
:102B80002068006A41F21111084050B92068006ABB
:102B90008910084028B92068006820F001002168E9
:102BA000086000BF1DB9012084F83E000EE0042D2E
:102BB00003D101213F20015508E0082D03D1012157
:102BC0004020015502E0012141200155304670BDF1
:102BD000002C0140704770477047704770470000F5
:102BE0002DE9F84F0446206805682068C66820680B
:102BF00047694FF00009CA4605F00F09B9F1000F07
:102C00000AD105F0200038B106F0200020B120469E
:102C100001F073FDBDE8F88FB9F1000F7BD007F02C
:102C2000010018B906F49070002874D005F0010076
:102C300030B106F4807018B1606C40F0010060643F
:102C400005F0040030B107F0010018B1606C40F0ED
:102C50000200606405F0020030B107F0010018B115
:102C6000606C40F00400606405F0080048B106F0B4
:102C7000200010B907F0010018B1606C40F00800A6
:102C80006064606C002845D005F0200028B106F093
:102C9000200010B1204601F030FD20684069C0F3EB
:102CA000801A606C00F0080010B9BAF1000F2CD047
:102CB000204601F0DCFC2068406900F0400000B3D1
:102CC00000BF00BF2168143151E8001F21F040000F
:102CD0002168143141E80002002AF3D100BFE06B03
:102CE00050B17748E16B4863E06BFDF7F9FF88B1BD
:102CF000E06B416B88470DE02046FFF76FFF09E06E
:102D000009E02046FFF76AFF04E02046FFF766FF70
:102D1000002060647EE7206B012877D105F0100069
:102D2000002873D006F010000028FAD000BF002061
:102D3000009020680068009020684068009000BF04
:102D400000BF2068406900F0400000285FD0E06BC1
:102D5000006840681FFA80F8B8F1000F55D0A08DC8
:102D6000404552DDA4F82E80E06B8069202843D0D6
:102D700000BF00BF21680C3151E8001F21F48070B2
:102D800021680C3141E80002002AF3D100BF00BFE6
:102D900000BF2168143151E8001F21F001002168B3
:102DA000143141E80002002AF3D100BF00BF00BF88
:102DB0002168143151E8001F21F0400021681431CE
:102DC00041E80002002AF3D100BF202084F842002D
:102DD0000020206300BF00BF21680C3151E8001FB4
:102DE00021F0100021680C3141E80002002AF3D1E3
:102DF00000BFE06BFDF749FF02206063A08DE28D0C
:102E0000801A81B22046FFF7E8FE03E742E0A08D7A
:102E1000E18D401A1FFA80F8E08DD0B3B8F1000FB1
:102E200037D000BF00BF21680C3151E8001F21F4EA
:102E3000907021680C3141E80002002AF3D100BFF4
:102E400000BF00BF2168143151E8001F21F00100CC
:102E50002168143141E80002002AF3D100BF20208C
:102E600084F842000020206300BF00BF21680C31BD
:102E700051E8001F21F0100021680C3141E80002E8
:102E8000002AF3D100BF0220606341462046FFF7CD
:102E9000A4FEBFE605F0800030B106F0800018B156
:102EA000204601F027FDB5E605F0400030B106F000
:102EB000400018B1204601F010FCABE600BFA9E6C7
:102EC0005B46000810B504460CB9012010BDA0698E
:102ED00000B100E000BF94F8410028B9002084F858
:102EE0004000204600F02AF8242084F841002068A1
:102EF000C06820F400502168C860204601F07CFCC6
:102F00002068006920F490402168086120684069C9
:102F100020F02A00216848612068C06840F4005011
:102F20002168C86000206064202084F8410084F893
:102F300042000020606300BFC8E7000010B586B003
:102F400004460020029003900490059037492068C1
:102F500088422FD100BF3648806940F48040344910
:102F600088610846806900F48040019000BF00BF7E
:102F700000BF0846806940F0040088610846806907
:102F800000F00400019000BF00BF4815029002202D
:102F900003900320059002A92648FDF771FF4FF426
:102FA0008060029000200390049002A92148FDF760
:102FB00067FF39E020492068884235D100BF1C48AE
:102FC000C06940F400301A49C8610846C06900F47D
:102FD0000030019000BF00BF00BF0846806940F08C
:102FE000040088610846806900F00400019000BF79
:102FF00000BF04200290022003900320059002A944
:103000000C48FDF73DFF082002900020039004903B
:1030100002A90848FDF734FF002211462620FEF7DA
:103020009BFD2620FEF788FD06B010BD003801404C
:1030300000100240000801400044004070472DE9A4
:10304000F84F04460E46174699464FF0000A94F88A
:103050004100202850D106B117B90120BDE8F88FF2
:1030600000206064212084F84100FEF7A7F8824622
:10307000A784E784A068B0F5805F04D1206910B907
:103080000025B04602E035464FF000081EE05346EA
:10309000002280212046CDF8009001F05BFC20B199
:1030A000202084F841000320D8E745B9B8F8000093
:1030B000C0F308002168486008F1020803E028789E
:1030C000216848606D1CE08C401EE084E08C002884
:1030D000DDD15346002240212046CDF8009001F07A
:1030E00039FC20B1202084F841000320B6E72020DD
:1030F00084F841000020B1E70220AFE7704700BF2D
:10310000FEE7014608684069C0F38020B0B16FF463
:1031100080600A68506100200863202081F83D002B
:10312000002081F83E00086C40F00400086400BFF5
:10313000002081F83C0000BF012070470020FCE720
:103140002DE9F84304460D4617469846E66A082ED0
:1031500004D0012E02D016F5803F06D12068006809
:1031600040F480702168086008E0206B122805D1C7
:103170002068006840F48070216808603B460022A7
:103180004FF001112046CDF8008000F08CF960B1BD
:103190002068006800F48070B0F5807F02D14FF4A1
:1031A000007020640320BDE8F8832069B0F5804FEB
:1031B00004D105F0FE002168086112E005F44070BA
:1031C000F02141EAE0102168086143463A460B4984
:1031D000204600F0C7F908B10120E4E7E8B2216811
:1031E000086143463A460549891F204600F0BAF96E
:1031F00008B10120D7E70020D5E700000800010052
:103200002DE9F84304460F4615469946DDE9088640
:103210002068006840F480602168086020680068C9
:1032200040F4807021680860434600224FF001118D
:103230002046009600F037F960B12068006800F47D
:103240008070B0F5807F02D14FF4007020640320BD
:10325000BDE8F88307F0FE00216808613346424666
:103260003E49204600F07EF908B10120F0E700BF9A
:1032700000200090206840690090206880690090DC
:1032800000BF00BF32464146204600F02DFA50B143
:10329000206C042805D12068006840F40070216883
:1032A00008600120D4E7B9F1010F03D1E8B2216829
:1032B000086117E0C5F307202168086132464146DE
:1032C000204600F011FA50B1206C042805D1206886
:1032D000006840F40070216808600120B8E7E8B297
:1032E0002168086132464146204600F0FDF950B1A0
:1032F000206C042805D12068006840F40070216823
:1033000008600120A4E72068006840F4807021680C
:103310000860434600224FF001112046009600F05D
:10332000C2F858B12068006800F48070B0F5807F62
:1033300002D14FF400702064032089E7F8B240F016
:10334000010021680861334642460449204600F0E6
:1033500009F908B101207BE7002079E702000100AC
:103360002DE9F8430446884615469946DDE9086785
:103370002068006840F480702168086033460022AD
:103380004FF001112046009700F08DF860B12068E1
:10339000006800F48070B0F5807F02D14FF40070B7
:1033A00020640320BDE8F88308F0FE00216808616E
:1033B0003B4632462149204600F0D4F808B10120AE
:1033C000F0E700BF0020009020684069009020686E
:1033D0008069009000BF00BF3A463146204600F0A9
:1033E00083F950B1206C042805D12068006840F4AE
:1033F0000070216808600120D4E7B9F1010F03D102
:10340000E8B22168086117E0C5F307202168086168
:103410003A463146204600F067F950B1206C042846
:1034200005D12068006840F4007021680860012020
:10343000B8E7E8B2216808610020B3E702000100A4
:1034400070B504460D46164625E02046FFF759FEA6
:1034500008B1012070BD681CE8B1FDF7AFFE801B0C
:10346000A84200D8BDB920684069C0F3800090B977
:1034700000202063202084F83D00002084F83E00D6
:10348000206C40F02000206400BF002084F83C0045
:1034900000BF0120DEE720684069C0F380000028FB
:1034A000D3D00020D6E72DE9F04104460D4617465B
:1034B0001E46DDF8188038E0701CA8B3FDF77EFECC
:1034C000A0EB0800B04200D876BBC5F30740012846
:1034D0000AD120684069A9B20840A9B2884201D146
:1034E00001200BE0002009E020688069A9B20840B3
:1034F000A9B2884201D1012000E00020B84214D1D5
:1035000000202063202084F83D00002084F83E0045
:10351000206C40F02000206400BF002084F83C00B4
:1035200000BF0120BDE8F081FFE7C5F30740012897
:103530000AD120684069A9B20840A9B2884201D1E5
:1035400001200BE0002009E020688069A9B2084052
:10355000A9B2884201D1012000E00020B842ABD0DE
:103560000020DFE72DE9F04104460D4616461F46D0
:1035700058E020684069C0F38020E8B12068006806
:1035800040F40070216808606FF480602168486131
:1035900000202063202084F83D00002084F83E00B5
:1035A000206C40F00400206400BF002084F83C0040
:1035B00000BF0120BDE8F081701C90B3FDF7FEFD57
:1035C000C01BB04200D866BBC5F3074001280AD132
:1035D00020684069A9B20840A9B2884201D10120FF
:1035E0000BE0002009E020688069A9B20840A9B278
:1035F000884201D1012000E0002090B90020206322
:10360000202084F83D00002084F83E00206C40F02B
:103610002000206400BF002084F83C0000BF01208F
:10362000C8E7FFE7C5F3074001280AD120684069D1
:10363000A9B20840A9B2884201D101200BE00020C4
:1036400009E020688069A9B20840A9B2884201D186
:10365000012000E0002000288BD00020AAE770B5F0
:1036600004460D46164637E020684069C0F3001056
:10367000A0B16FF010002168486100202063202075
:1036800084F83D00002084F83E00206C206400BFD8
:10369000002084F83C0000BF012070BDFDF78EFDC6
:1036A000801BA84200D8BDB920684069C0F38010D3
:1036B00090B900202063202084F83D00002084F889
:1036C0003E00206C40F02000206400BF002084F801
:1036D0003C0000BF0120E0E720684069C0F3801093
:1036E0000028C1D00020D8E770B504460D46164624
:1036F00025E02046FFF705FD08B1012070BD681CDC
:10370000E8B1FDF75BFD801BA84200D8BDB9206879
:103710004069C0F3C01090B900202063202084F8D5
:103720003D00002084F83E00206C40F02000206422
:1037300000BF002084F83C0000BF0120DEE72068C5
:103740004069C0F3C0100028D3D00020D6E70000A5
:1037500070B500240CE0002506E00020074901EBCD
:10376000C5010855681CC5B2802DF6DB601CC4B2CB
:10377000082CF0DB00F0C4F870BD0000C40200208B
:10378000F0B514460B46CF1701EB5777C7F3C702C6
:10379000CF1701EB5777FF10A1EBC707FEB201234C
:1037A000B340DDB24CB1134B03EBC0039B5C2B4326
:1037B000104F07EBC007BB541AE00E4B03EBC003DE
:1037C0009B5CDB430B4F07EBC007BB54094B03EB80
:1037D000C0039B5C2B43074F07EBC007BB54054B53
:1037E00003EBC0039B5CDB43024F07EBC007BB54FA
:1037F000F0BD0000C402002010B54FF44870FDF782
:10380000C7FA0021AE2000F00BFA0021084600F0B4
:1038100007FA0021102000F003FA0021402000F0F8
:10382000FFF90021812000F0FBF90021CF2000F0FA
:10383000F7F90021A12000F0F3F90021C82000F0E1
:10384000EFF90021A62000F0EBF90021A82000F0FC
:10385000E7F900213F2000F0E3F90021D32000F038
:10386000DFF90021084600F0DBF90021D52000F047
:10387000D7F90021802000F0D3F90021D92000F0F1
:10388000CFF90021F12000F0CBF90021DA2000F07F
:10389000C7F90021122000F0C3F90021DB2000F05D
:1038A000BFF90021402000F0BBF90021202000F0EA
:1038B000B7F90021022000F0B3F900218D2000F0BB
:1038C000AFF90021142000F0ABF90021A42000F092
:1038D000A7F90021A62000F0A3F9FFF739FF002186
:1038E000AF2000F09DF910BD10B50246012000E0A8
:1038F00050430B1EA1F10104E1B2F9D110BD00004B
:1039000070B500241CE004F1B001C8B2002100F041
:1039100087F90021084600F083F90021102000F00B
:103920007FF9002508E0084901EBC501085D012188
:1039300000F076F9681CC5B2802DF4DB601CC4B2BF
:10394000082CE0DB70BD0000C40200202DE9FE4F12
:103950000746884692461C460197CDF80080082C01
:1039600002D14FF006091FE02046E31704EB537322
:10397000DB1021464FEAE47C04EB5C7C4FEAEC0C64
:10398000A4EBCC0CBCF1000F02D04FF0010C01E015
:103990004FF0000C6344224604EBD27C4FEA6C0CDF
:1039A00003FB0CF303F0FF09AAF12000C6B20025C7
:1039B0005EE0082C07D106EB46002F4901EB4000E2
:1039C00010F805B01DE00C2C07D106EB46002B4982
:1039D00001EB800010F805B013E0102C05D1284849
:1039E00000EB061010F805B00BE0182C07D106EB21
:1039F000C600244901EB800010F805B001E0BDE8E5
:103A0000FE8F002002901CE00BF0010028B141461F
:103A100038460C9AFFF7B4FE09E00C9808B901206B
:103A200000E00020024641463846FFF7A9FE4FEA73
:103A30006B0B08F1010000F0FF080298401CC0B2B7
:103A4000029002980828DFDB781CC7B2082C0BD044
:103A500004EBD4714A100199791A8A4204D1019F6A
:103A600000980830C0B20090DDF80080681CC5B234
:103A70004D459EDB00BFC2E72A6000085262000885
:103A8000C6660008B66C00082DE9FC4F05460F46D7
:103A900090461C46A946BA462046E21704EB5272ED
:103AA000D2102146E31704EB5373DB10A4EBC303DE
:103AB0000BB1012300E000231A4462431FFA82FB8A
:103AC00000263AE0102C05D11E4800EB4810805D1E
:103AD000009001E0BDE8FC8F002001901CE0009800
:103AE00000F0010028B1394628460B9AFFF748FE3E
:103AF00009E00B9808B9012000E000200246394691
:103B00002846FFF73DFE009840100090781CC7B291
:103B10000198401CC0B2019001980828DFDB681CA6
:103B2000C5B2A5EB0900A04204D14D460AF1080038
:103B300000F0FF0A5746701C86B25E45C2DB00BF2C
:103B4000C8E70000127A00082DE9FF4F82B0064650
:103B500091461F46DDE90F4A4FF0000B082C01D1BA
:103B60004FF0020B002530E0781B401EC1B20A2046
:103B7000FFF7BAFEB9FBF0F00A21B0FBF1F201FB4E
:103B80001208B8F1000F0ED104EBD4710BEB6101F8
:103B900001FB0561C8B223463022CDE900A4039998
:103BA000FFF7D4FE0FE004EBD4710BEB610101FBD6
:103BB0000561C8B208F13001CAB22346CDE900A4BC
:103BC0000399FFF7C3FE681CC5B2BD42CCDB06B04B
:103BD000BDE8F08F2DE9F84106460F4614461D4614
:103BE000DDF81C8013E0CDF8008022782B463946A2
:103BF0003046FFF7ABFE082D02D1B01DC6B205E07E
:103C0000284605EBD07106EB6101CEB2641C20782A
:103C1000202802DB20787E28E5DDBDE8F881000061
:103C20007CB504460D460DB9002000E040208DF81B
:103C300004008DF805406420022301AA7821009039
:103C40000148FDF7A9FB7CBD5001002000B585B0FF
:103C50000020019002900390049000BF47488069C3
:103C600040F01000454988610846806900F0100066
:103C7000009000BF00BF00BF0846806940F02000F0
:103C800088610846806900F02000009000BF00BFF6
:103C900000BF0846806940F00400886108468069DA
:103CA00000F00400009000BF00BF00BF084680691C
:103CB00040F0080088610846806900F00800009024
:103CC00000BF00BF002202212D48FDF771FA00223B
:103CD0004FF400712B48FDF76BFA02200190012090
:103CE0000290002003900220049001A92448FDF7CF
:103CF000C7F84FF400400190234802900120039040
:103D000001A91F48FDF7BCF8382001901E48029019
:103D10000120039001A91B48FDF7B2F84FF4007091
:103D2000019001200290002003900320049001A93B
:103D30001448FDF7A5F8002202210920FDF70CFF29
:103D40000920FDF7F9FE002202210A20FDF704FFF9
:103D50000A20FDF7F1FE002202211720FDF7FCFEEC
:103D60001720FDF7E9FE002202212820FDF7F4FECE
:103D70002820FDF7E1FE05B000BD00000010024064
:103D800000080140000C01400000211010B50B4854
:103D90000B4908600B484860002109488160C160F8
:103DA0004FF480410161002141618161C161016283
:103DB000FDF70AFA08B1FCF765FF10BD0058004096
:103DC00050010020A086010000B595B000201190A0
:103DD0001290139014900F9010901C2108A8FCF7DB
:103DE000CCF920216846FCF7C8F92B482B4908601C
:103DF000472048600021294881604FF6FF71C1606B
:103E00000021016141618161FEF7E6FA08B1FCF72A
:103E100039FF4FF48050119011A92048FEF7A9FBFB
:103E200008B1FCF72FFF1D48FEF796FD08B1FCF71F
:103E300029FF00200F9010900FA91848FEF78AFA6A
:103E400008B1FCF71FFF30200890002009900A906D
:103E50000B900C900D900E90002208A90F48FEF7D1
:103E6000F1FC08B1FCF70EFF0020009001900290D9
:103E7000039004904FF4005005900020079069468D
:103E80000648FEF72DFA08B1FCF7FCFE0348FEF7E2
:103E9000ADFC15B000BD0000002C0140A4010020C5
:103EA00000B587B000200390049005900690019023
:103EB000029014481449086040F60F6048600021E1
:103EC000114881602221C160002101618161FEF7FA
:103ED00083FA08B1FCF7D6FE4FF48050039003A993
:103EE0000948FEF746FB08B1FCF7CCFE0020019024
:103EF000029001A90448FEF72DFA08B1FCF7C2FEB2
:103F000007B000BD00040040EC01002010B50B48D4
:103F10000B4908604FF4E130486000210848816097
:103F2000C16001610C21416100218161C161FEF725
:103F3000C9FF08B1FCF7A6FE10BD00000038014023
:103F40003402002010B50B480B4908604FF4E130F3
:103F50004860002108488160C16001610C21416115
:103F600000218161C161FEF7ADFF08B1FCF78AFE57
:103F700010BD0000004400407C02002000BFFEE7AE
:103F800000BFFEE77047000008B508490968C90886
:103F90004FF47A72B1FBF2F14143009100BF00BFD0
:103FA00000994A1E00920029F9D108BD1000002096
:103FB000704700002DE9F04F87B063480068624900
:103FC000C969401A0690604988684FF08041FCF743
:103FD00042F905465C4A11691069FCF73CF906464E
:103FE0002946FCF76AF90446FCF73AFB0590564966
:103FF000C8684FF08041FCF72EF90546524A116916
:104000001069FCF728F906462946FCF756F90446DC
:10401000FCF726FB04904C48C1690598814237D2D1
:10402000494890F82100002832D147498869FCF7B7
:1040300044FBCDE9020144498868FCF73EFB824617
:104040000022424BFCF71EFACDE90001DDE9022314
:10405000FCF78AFA06460F463B498869FCF72DFBB8
:10406000804632463B46FCF766F90446FCF738FBCF
:10407000354988610A4611699069FCF757FB3DD8BC
:104080000120314981F8210008460069886135E046
:1040900004990698884209D92B4890F821000128F4
:1040A00004D1294800692849886127E0022026496F
:1040B00081F821008869FCF700FBCDE90001224965
:1040C000C868FCF7FAFA06460022204BFCF7DAF93A
:1040D0000446DDE90023FCF747FA804689461A4981
:1040E0008869FCF7EAFA42464B46CDE90201FCF743
:1040F000C3F98246FCF7F4FA13498861124A116940
:104100009069FCF713FB04D20F4800690E498861DF
:1041100009E00D4A51699069FCF7FEFA03D20A489A
:1041200040690949886108498869FCF7C6FA06466A
:1041300032460B4600200649FCF716FA0446FCF707
:10414000A3FA07B0BDE8F08F1C0000200000F03F8C
:1041500080842E412DE9F0478EB00446534890F8F4
:10416000200010B10EB0BDE8F087002C01DD012069
:1041700000E000204D4908714FF4C86104FB01F0D4
:10418000002801DB014600E04142484A11604848EE
:104190001146086188684FF08041FCF75CF80646DC
:1041A000424A11691069FCF756F807463146FCF798
:1041B00084F80546FCF754FA82463C49C8684FF03B
:1041C0008041FCF748F80646384A11691069FCF747
:1041D00042F807463146FCF770F80546FCF740FA0E
:1041E0008146324801680AEB090081423BD22F4ADE
:1041F000D1689068FBF7D7FF0546FCF75EFACDE97A
:1042000008012A49C868FCF758FA05460E462749AE
:104210008868FCF752FACDE9020124490868FCF7E6
:1042200012FA074600224FF08043FCF72BF9CDE944
:104230000001DDE90223FCF725F92A463346CDE9E2
:104240000401FCF71FF9CDE90601DDE90823FCF7BD
:104250008BF9CDE90A0101F057FCCDE90C01FCF71F
:104260003FFA124908610020104981F82100C86115
:104270008861012081F82000FFF79CFE0D4908604D
:104280000846007800F001000B49086000200B4947
:104290000968486207480068400808490968486397
:1042A0000249087900F00CF800BF5BE71C00002011
:1042B0000000FA441400002018000020A40100208F
:1042C00010B504460948C470012009498870224687
:1042D00002210848FCF76CFF012251020648FCF756
:1042E00067FF00210548FEF76BFB10BD1801002099
:1042F0000E01002000080140000C0140A401002034
:1043000010B500200349887000210348FEF7EAFB3E
:1043100010BD00000E010020A401002010B5FDF723
:104320009BFB10BD00B58FB0282105A8FBF725FF2A
:1043300014216846FBF721FF012005900004069038
:10434000002007900120099002200C90C1030D91DC
:104350004FF4E0110E9105A8FDF774FD08B1FCF7CC
:1043600091FC0F20009002200190002002904FF459
:10437000806003900020049002216846FDF73EFC17
:1043800008B1FCF77FFC0FB000BD704710B50248C4
:10439000FEF776F910BD0000A401002010B5084812
:1043A0000068006900F0010030B16FF001000449BD
:1043B0000968086101F090FB0148FEF761F910BD42
:1043C000EC01002010B502681C4B984208D0B0F1F7
:1043D000804F05D01A4B984202D01A4B984203D115
:1043E00022F070024B681A43144B984208D0B0F187
:1043F000804F05D0124B984202D0124B984203D105
:1044000022F44072CB681A4322F080034C6943EADD
:10441000040202608B68C3620B688362074B984298
:1044200001D10B69036301234361036903F00103B5
:104430001BB1036923F00103036110BD002C01408F
:10444000000400400008004030B501F01F050124C1
:1044500004FA05F3046A9C430462046A01F01F0530
:1044600002FA05F52C43046230BD30B50C46816874
:1044700021F47F4142EA032525432943816030BD71
:104480000A46816821F0700142F0070319438160F8
:104490007047000030B5026A056A25F00105056223
:1044A0004368846924F0700424F003040D682C43ED
:1044B00022F002028D682A430D4DA84206D100BFAA
:1044C00022F00802CD682A4322F00402084DA842D7
:1044D00007D123F4807323F400734D692B438D6956
:1044E0002B43436084614D684563026230BD000028
:1044F000002C014030B5026A056A25F010050562FE
:104500004368846924F4E04424F440740D6844EA68
:10451000052422F020028D6842EA05120E4DA842C1
:1045200007D100BF22F08002CD6842EA051222F0D6
:104530004002094DA84209D123F4806323F40063AB
:104540004D6943EA85038D6943EA850343608461CD
:104550004D688563026230BD002C014030B5026AAF
:10456000056A25F4807505624368C46924F0700407
:1045700024F003040D682C4322F400728D6842EA93
:1045800005220F4DA84207D100BF22F40062CD687A
:1045900042EA052222F48062094DA84209D123F49F
:1045A000805323F400534D6943EA05138D6943EAB0
:1045B00005134360C4614D68C563026230BD0000ED
:1045C000002C014030B5036A056A25F48055056268
:1045D0004468C26922F4E04222F440720D6842EA63
:1045E000052223F400538D6843EA0533064DA842A3
:1045F00004D124F480444D6944EA85144460C261C6
:104600004D680564036230BD002C014030B50B4697
:104610001446026A056A25F001050562816921F0E8
:10462000F00141EA041122F00A021A438161026298
:1046300030BD30B50B461446026A056A25F01005F8
:104640000562816921F4704141EA043122F0A0023F
:1046500042EA03128161026230BD70B505466C6AA0
:104660000020E085E0842046FEF7B8FA70BD00BF68
:1046700000BF02680C3252E8002F22F490710268E9
:104680000C3242E80013002BF3D100BF00BF00BF83
:104690000268143252E8002F22F00101026814323D
:1046A00042E80013002BF3D100BF016B01290ED1AA
:1046B00000BF00BF02680C3252E8002F22F0100148
:1046C00002680C3242E80013002BF3D100BF202116
:1046D00080F8421000210163704710B5044620683D
:1046E000C06820F040002168C860202084F84100A4
:1046F0002046FEF703FD002010BDF8B5044694F8EF
:104700004200222875D1A068B0F5805F0CD12069E5
:1047100050B90025A66A20684068C0F308003080C0
:10472000A06A801CA06215E0A56A0026A068B0F50A
:10473000805F03D0A06828B9206918B92068406854
:10474000287004E02068406800F07F002870A06AAC
:10475000401CA062E08D401E80B2E085002846D15A
:104760002068C06820F020002168C8602068C06808
:1047700020F480702168C8602068406920F0010042
:1047800021684861202084F8420000206063206B8B
:10479000012826D10020206300BF00BF21680C3112
:1047A00051E8001F21F0100021680C3141E800029F
:1047B000002AF3D100BF2068006800F01000102824
:1047C0000AD100BF00200090206800680090206897
:1047D0004068009000BF00BFA18D2046FEF7FDF9A4
:1047E00002E02046FEF72AFC0020F8BD01E0002090
:1047F000FBE70220F9E7000070B50446216809696B
:1048000021F44051E2681143226811612269A168D4
:104810001143626941EA02052168C96841F20C62EC
:10482000914329432268D1602168496921F440718C
:10483000A2691143226851612D4A2168914202D137
:10484000FDF7B8FA01E0FDF7A5FA00EBC00101EBB6
:10485000001162689200B1FBF2F100EBC00202EBC2
:10486000001263689B00B2FBF3F26423B2FBF3F225
:1048700002EBC20303EB0212A1EB8201322202EB34
:1048800001116422B1FBF2F101F0F00100EBC00272
:1048900002EB001263689B00B2FBF3F26423B2FBED
:1048A000F3F201EB021200EBC00101EB00116368AF
:1048B0009B00B1FBF3F100EBC00303EB0013666850
:1048C000B600B3FBF6F36426B3FBF6F303EBC306C3
:1048D00006EB0313A1EB8301322303EB01116423E5
:1048E000B1FBF3F101F00F0111442268916070BD3A
:1048F00000380140014691F84100212828D18868FC
:10490000B0F5805F0BD1086948B90A6A1088C0F316
:1049100008000B685860086A801C086205E00B6A92
:10492000581C086218780B685860C88C401E80B20A
:10493000C88458B90868C06820F080000B68D86047
:104940000868C06840F040000B68D86000207047DD
:104950000220FCE72DE9F84304460D461746984629
:10496000089E31E0701C70B3FCF728FCA0EB080037
:10497000B04200D816B90320BDE8F8832068C068AB
:1049800000F00400F8B1802D1ED0402D1CD020680E
:104990000068C0F3C000B0B100BF002000902068E4
:1049A0000068009020684068009000BF00BF20466B
:1049B000FFF75DFE0820606400BF002084F840001F
:1049C00000BF0120D8E7FFE7206800682840A84220
:1049D00001D1012000E00020B842C3D00020CBE785
:1049E00010B50F4800680068C0F3401030B16FF098
:1049F00020000B490968086001F076F80848006853
:104A00000068C0F3C01030B16FF08000044909683D
:104A1000086001F071F80248FEF7E2F810BD0000EE
:104A20007C02002000BFFEE71FB504464FF47A70F9
:104A3000012103AA0B46CDE9002102902246A021C4
:104A40000348FCF761FD9DF80C0004B010BD0000A8
:104A50005001002013B584B004464FF47A70012150
:104A600005AA0B46CDE9002102902246A021044868
:104A7000FCF704FF0A20FCF78BF906B010BD00001C
:104A8000500100200FB4054B10B503A9044A029849
:104A900000F03AF810BC5DF814FB0000D95900088A
:104AA0004801002002480068C0F30220704700005F
:104AB0000CED00E010B5002804DB0A07130E054AD0
:104AC000135406E00A07140E034A00F00F031B1FDD
:104AD000D45410BD00E400E018ED00E002E008C886
:104AE000121F08C1002AFAD170477047002001E068
:104AF00001C1121F002AFBD1704700000149086064
:104B0000704700004C0100202DE9FF4F8BB09A4602
:104B10000F460546002606E025280BD052460D9983
:104B200090476D1C761C28780028F5D10FB03046D0
:104B3000BDE8F08F0024A0460122604900E0044354
:104B400015F8013F203B02FA03F00842F7D128781C
:104B50002E2817D115F8010F44F004042A280ED08E
:104B60006FF02F022878A0F1300109290AD808EB4C
:104B7000880102EB410100EB01086D1CF2E757F8D8
:104B8000048B6D1C287869283ED006DC0028CDD027
:104B900063280BD0642804D136E0732810D0752820
:104BA0004BD052460D999047761C85E017F8040BC0
:104BB0008DF8000000208DF80100E946012003E097
:104BC00057F8049B4FF0FF3061074FF0000401D409
:104BD0000AE0641C44450DDA8442FADB19F804103B
:104BE0000029F6D106E0641C8442FCDB19F80410AD
:104BF0000029F8D1264404E019F8010B52460D991A
:104C00009047641EF8D257E001CF4FF00A0B0028FE
:104C100002DA40422D2102E0210504D52B218DF836
:104C20002410012103E0E10705D02021F7E70DF171
:104C3000200908910CE00021F9E701CF4FF00A0BA1
:104C4000F9E75946FBF77CFD01F1300209F8012D27
:104C50000028F6D1ADEB090000F1200B600701D46C
:104C60004FF00108D84502DDA8EB0B0000E0002062
:104C70008046002406E009A85246005D0D99904741
:104C8000641C761C08988442F5DB04E03020524610
:104C90000D999047761CB8F10001A8F10108F5DCE8
:104CA00005E019F8010B52460D999047761CBBF1AF
:104CB0000001ABF1010BF4DC6D1C34E709280100A5
:104CC0002DE9F04180460C4615461E4600270A2075
:104CD0000A490870334607222946204601F0E6F8C3
:104CE000012801D0032706E044F6206001F0EAF82D
:104CF000012800D003273846BDE8F0814701002095
:104D00002DE9F04104460D46164600270D4800885F
:104D1000032813DB0B4801880B48006800F0CCFE29
:104D200060B9094800680078207006480088801E35
:104D3000308005480068401C286000E005273846A0
:104D4000BDE8F0813C010020380100202DE9F04150
:104D500004460D4616464FF000081648007818BB6A
:104D6000681E15490860012014490880124800682F
:104D700004700846008830440880084601880E48C0
:104D8000006800F099FE07460C490888411C0B4A50
:104D900011800B4909680F5401200A49087001214C
:104DA000002000F0F3FE01E04FF005084046BDE8AA
:104DB000F081000035010020400100204401002066
:104DC000380100203401002010B50021012000F03E
:104DD000DDFE00200249087001F054F810BD00000B
:104DE0003501002010B50021084600F0CFFE00F08C
:104DF000F5FE10BD10B5002406480078012806D144
:104E000005480068804700200249087000E0062439
:104E1000204610BD460000204C0000202DE9F05F28
:104E200006460D464FF0000B2888052848D17078BB
:104E30004FEA0029B07840EA090909F101001FFA98
:104E400080F9F078040230790443012C35DBB4F5A5
:104E5000FA6F32DA374600202880012007F8010B6C
:104E60002888401C288004F0070040B12046E11744
:104E700004EB5171C910491C01F0FF0805E0204600
:104E8000E11704EB5171C1F3C70807F8018B2888BB
:104E9000401C2880002322464946384600F036FC54
:104EA0008246BAF1000F04D0504600F0CFFD834691
:104EB00008E028884044288004E04FF0030B01E01C
:104EC0004FF0030B5846BDE8F09F2DE9F05F064612
:104ED0000D464FF0000B2888052847D170784FEA1F
:104EE0000029B07840EA090909F101001FFA80F9A8
:104EF000F078040230790443012C34DBB4F5FA6F06
:104F000031DA374600202880022007F8010B288874
:104F1000401C288004F0070040B12046E11704EB54
:104F20005171C910491C01F0FF0805E02046E11746
:104F300004EB5171C1F3C70807F8018B2888401CA6
:104F4000288022464946384600F056FC8246BAF18F
:104F5000000F04D0504600F079FD834608E0288811
:104F60004044288004E04FF0030B01E04FF0030BB6
:104F70005846BDE8F09F2DE9F04705460C464FF036
:104F8000000A2088052837D168784FEA0028A878D9
:104F900040EA080808F101001FFA80F8E8780602E4
:104FA0002E79012E25DB7D2E23DC2F46002020804C
:104FB000032007F8010B2088401C20807006000E9B
:104FC00007F8010B2088401C208000233246414610
:104FD000384600F057FC8146B9F1000F04D048462E
:104FE00000F034FD824609E0208800EB4600208076
:104FF00004E04FF0030A01E04FF0030A5046BDE819
:10500000F0872DE9F04705460C464FF0000A20884E
:10501000052837D168784FEA0028A87840EA0808C0
:1050200008F101001FFA80F8E878060228790643A3
:10503000012E24DB7D2E22DA2F4600202080042042
:1050400007F8010B2088401C20807006000E07F82E
:10505000010B2088401C208032464146384600F033
:105060009BFC8146B9F1000F04D0484600F0EEFCED
:10507000824609E0208800EB4600208004E04FF0E3
:10508000030A01E04FF0030A5046BDE8F0872DE91E
:10509000FC5F04460D460020009028880A285DDB4E
:1050A00060784FEA002AA07840EA0A0A0AF1010073
:1050B0001FFA80FAE07806022079064360794FEA09
:1050C000002BA07940EA0B0B0BF101001FFA80FBCB
:1050D000E0790702207A0743607A0190012E3BDBDA
:1050E0007D2E39DC012F37DB792F35DC79000198F3
:1050F000814231D101233A46594604F10A0000F0B9
:10510000C1FB8146B9F1000F1ED1A04600202880C6
:10511000172008F8010B2888401C28807006000E14
:1051200008F8010B2888401C28800023324651468D
:10513000404600F0A7FB8146B9F1000F04D1288852
:10514000022101FB06002880B9F1000F06D0484675
:1051500000F07CFC009001E0032000900098BDE886
:10516000FC9F000070B505460C46064802880649BB
:10517000681CFAF7E9FF03480088401C20800020E3
:1051800070BD000030010020580800202DE9F843D0
:1051900004460F464FF000083888052829D160786A
:1051A0000502A0780543681C85B22079F0B9E07843
:1051B000FF2801D0E078C8B900208DF80100E07820
:1051C000FF2803D101208DF8000002E000208DF8B7
:1051D000000001231A462946684600F097FA064661
:1051E0004EB1304600F032FC804604E04FF0030838
:1051F00001E04FF003084046BDE8F8832DE9F04197
:1052000004460F464FF000083888052812D1607810
:105210000502A0780543681C85B201231A46294679
:10522000E01C00F02FFB064636B1304600F00EFCC5
:10523000804601E04FF003084046BDE8F0812DE9CB
:10524000F05F05460E464FF0000B3088052839DD2B
:1052500068780702A8780743781C87B2E8780402C8
:105260002879044395F805A004F0070040B12046D2
:10527000E11704EB5171C910491C01F0FF0805E06A
:105280002046E11704EB5171C1F3C708012C16DB6E
:10529000B4F5F66F13DCD04511D10123224639460F
:1052A000A81D00F033FA8146B9F1000F04D048463A
:1052B00000F0CCFB834607E00520308004E04FF08F
:1052C000030B01E04FF0030B5846BDE8F09F2DE9BA
:1052D000F04704460E464FF0000A3088062828DBC7
:1052E00060780702A0780743781C87B2E07805024F
:1052F0002079054394F80590012D17DB782D15DCF6
:105300006806000E484511D101232A463946A01DE2
:1053100000F0B8FA8046B8F1000F04D0404600F023
:1053200095FB824607E00520308004E04FF0030A39
:1053300001E04FF0030A5046BDE8F0872DE9F04741
:1053400005460C4616461F46DDF820904FF0000833
:105350001CB1012C01DBF72C02DD4FF0020859E0F3
:105360002E48047015B1012D42D120E02C482D4962
:1053700008602D482D4908602D482E4908602E48A8
:105380002E49086000202E4908602E482E490860EA
:105390002E482F4908602F482F4908604B463A464F
:1053A00031461E48007800F007F9804623E02B487C
:1053B0001C4908602A481D4908602A481D490860A0
:1053C00029481E49086000201D49086027481E49D9
:1053D000086027481E49086026481F4908604B4658
:1053E0003A4631460D480078FFF76AFC804602E0F5
:1053F0004FF0020800BF00BFB8F1000F0AD100F063
:1054000039FD10B94FF0030804E01B480570012076
:105410001A4908704046BDE8F087000044000020AB
:10542000E15600084C000020FD5600085000002006
:105430005956000848000020095600085400002072
:1054400058000020CD5E00085C000020955F000839
:1054500060000020555F000864000020C94D00086E
:10546000E54D00084D4D0008014D00080D5C000899
:10547000615D0008355D0008450000204600002001
:1054800038B500254148007808B1062038BD684687
:1054900000F0DEFC012877D19DF8000030B1012832
:1054A00005D0022818D003286DD16BE06BE0384A94
:1054B00038493948394B1B68984705465DB9364825
:1054C000007837490978884202D03348007810B90B
:1054D000022000F0D7FC56E02E48006800783149E1
:1054E0000870012030490870002417E02F4810F898
:1054F000340000B914E02D4810F834002949097827
:1055000088420AD1294800EBC40021494268214859
:10551000006890472449087002E0641C102CE5DB09
:1055200000BF1D48007858B31F480078C8B100205C
:10553000174908801B48007840F080011448028811
:105540000088401C124B188012480068815416488D
:105550000278184601880088401C18800D480068B1
:10556000425413480078012800D100BF084802883F
:10557000084801680A4800780E4B1B6898470546A2
:1055800001E001E000BF00BF00207FE746000020EF
:10559000F6000020F0000020F4000020540000205D
:1055A00044000020F5000020F800002070000020DA
:1055B00045000020480000202DE9F04781460E46B6
:1055C00014461F464FF000083B460822214630464D
:1055D00000F06CFC012802D04FF003080FE0B4F596
:1055E000964F01D9232503E060000649B1FBF0F591
:1055F000A8B200F067FC012801D04FF00308404634
:10560000BDE8F087A07F17002DE9F04104460D4664
:1056100016464FF0000800270D480088042812DBCA
:105620000B4801880B4800F095FA60B909480078EA
:10563000207007480088C01E30800648401C286043
:105640004FF0010800E005273846BDE8F081000072
:105650002E010020580700202DE9F04105460E4696
:1056600017464FF0000819480078012829D1701E0C
:10567000174908600120174908801548006805701F
:1056800008460088384408800846018810480068A9
:1056900000F060FA04460F490888411C0D4B198040
:1056A0000D490C54221219460888411C19800A49D8
:1056B0000A540120094908700121002000F066FA0F
:1056C00001E04FF005084046BDE8F08125010020CB
:1056D000280100202C010020580700202401002070
:1056E00010B50020044908700021012000F04EFA96
:1056F00000F07CFA10BD00002501002010B500214B
:10570000084600F043FA00F069FA10BD2DE9F05F99
:1057100006468A4614469B46AAF1010087B2002538
:10572000A946A84638190A2802DD0120BDE8F09FE5
:10573000BBF1010F24D1601EC11700EB5171C910DC
:10574000491C01F0FF0817E016F8019B00250CE04A
:1057500049FA05F000F001023846791C8FB2204961
:105760000A54601E84B2681CC5B20CB1082DEFDB70
:10577000A8F1010000F0FF08B8F1000FE4D127E024
:10578000601EC11700EB5171C910491C01F0FF08E0
:105790001BE04FF0000900250EE01148C05D28B164
:1057A0000120A84040EA090000F0FF09601E84B211
:1057B000781C87B2681CC5B20CB1082DEDDB06F869
:1057C000019BA8F1010000F0FF08B8F1000FE0D143
:1057D0000348817803A0FFF755F90020A6E70000F1
:1057E0000E010020E7BABFE59C88E6938DE4BD9CDE
:1057F0003A25640A00000000F0B503460D46681E15
:1058000081B200240026002788180A2801DD012023
:10581000F0BD501E4FEAE07C00EB5C7C4FEAEC0CE4
:105820000CF1010C0CF0FF0716E0002600240CE040
:105830001348405C18B10120A0403043C6B2501E4E
:1058400082B2481C81B2601CC4B20AB1082CEFDBE2
:1058500003F8016B781EC7B2002FE6D100210BE0E0
:105860000748405C08B9012000E00020DFF810C0C4
:105870000CF80100481C81B20A29F1DB0020C7E7BF
:10588000180100202DE9F04704460F4615469846BA
:10589000781E86B270190A2802DD0120BDE8F08763
:1058A000B8F1010F0FD10BE06078217840EA0120B8
:1058B0002A4921F81600A41C701C86B2681E85B205
:1058C000002DF1DC11E00EE0244830F81600001243
:1058D00004F8010B214810F8160004F8010B701CA5
:1058E00086B2681E85B2002DEEDC2F211CA0FAF7CF
:1058F0004FFC28B12F211AA0FAF74AFC401C00E007
:1059000017A082465C21FAF743FC88B12F2114A02E
:10591000FAF73EFC28B12F2111A0FAF739FC401C00
:1059200000E00FA082465C21FAF732FC401C0BE03D
:105930002F210BA0FAF72CFC28B12F2108A0FAF791
:1059400027FC401C00E006A08146044883886922A9
:1059500049460AA0FFF796F800209FE7FA000020CA
:10596000696E746572666163655C667265654D6FCC
:10597000646275735C706F72742E63005B25733A9A
:1059800025645D2072656720616374696F6E3A25D6
:10599000640A0D0A0000000010B503460C46601EA4
:1059A00081B288180A2801DD012010BD0EE00948E7
:1059B00030F81100001203F8010B064810F811002E
:1059C00003F8010B481C81B2501E82B2002AEEDCA3
:1059D0000020EAE74407002013B50C464FF6FF739A
:1059E000012269460248FDF72AFB00981CBD000011
:1059F0003402002008B5FCF73BF8FEF793FCFEF7F5
:105A000025F9FEF7C3F9FEF781FAFEF7DDF9FEF797
:105A100047FAFEF797FAFAF7EDFFFBF79FF8002039
:105A20004FF4E13302460090074801780020FFF769
:105A300085FCFFF7DFF905E0FBF794F8FAF7FCFFC8
:105A4000FFF71EFDF8E7000041000020014621B1EC
:105A5000012904D0072906D103E0002005E0022037
:105A600003E0062001E0042000BF00BF70470146AC
:105A7000092903DC01F13000C0B270470A2905DBB7
:105A80000F2903DC01F13700C0B2F6E700BF302078
:105A9000F3E70146302905DB392903DCA1F13000A9
:105AA000C0B27047412905DB462903DCA1F137006C
:105AB000C0B2F6E7FF20F4E710B50246002003E08D
:105AC00012F8014B2318D8B20B1EA1F10104A1B2A8
:105AD000F6D14342D8B210BD10B5024800688047E5
