:020000040800F2
:100000008809002005010008A9300008CB2200085B
:10001000A5300008DD03000881360008000000005C
:10002000000000000000000000000000D9300008BF
:10003000E103000800000000AD3000087531000841
:100040001F0100081F0100081F0100081F01000810
:100050001F0100081F0100081F0100081F01000800
:100060001F010008EF030008F90300081F01000842
:100070001F0100081F0100081F0100081F010008E0
:100080001F0100081F0100081F0100081F010008D0
:100090001F0100081F0100081F01000803040008D9
:1000A0001F010008E53100081F0100081F010008BA
:1000B0001F0100081F0100081F0100081F010008A0
:1000C0001F0100081F0100081F0100081F01000890
:1000D0001F0100081F0100081F0100081F01000880
:1000E000E30300081F0100081F010008DFF810D01B
:1000F00000F042F8004800472D390008AFF30080B7
:10010000880900200648804706480047FEE7FEE7CA
:10011000FEE7FEE7FEE7FEE7FEE7FEE7FEE7FEE7B7
:10012000E3310008ED000008D2B201E000F8012B35
:10013000491EFBD270470022F6E710B513460A4667
:1001400004461946FFF7F0FF204610BD30B50B46B8
:10015000014600202022012409E021FA02F59D42F7
:1001600005D303FA02F5491B04FA02F52844151ECB
:10017000A2F10102F1DC30BD064C074D06E0E0685B
:1001800040F0010394E8070098471034AC42F6D3DE
:10019000FFF7B0FF4C5400086C54000810B5002065
:1001A00003F070FA0446582C09D05821002003F0BF
:1001B0007FFA08480178012003F07AFA04E0012070
:1001C00003F060FA034908700248017802A003F0C6
:1001D00087FA10BD1C00002049443A2025640A001B
:1001E00010B53C48007870B33B480078012806D031
:1001F00002280DD0032814D0042823D11AE00020AF
:100200003549087035480078401C3449087019E0B9
:1002100000203149087031480078401E2F4908708D
:1002200010E000202C4908702C480178012003F0D0
:100230003FFA07E00020284908702649087002F0BC
:100240006DFB00BF45E0FFE722480078002840D161
:1002500021480078012806D0022815D0032825D08F
:10026000042835D12BE000201B4908701C48007879
:10027000401C40B21A490870084690F90000142842
:1002800001DD1420087023E0002013490870144891
:100290000078401E40B212490870084690F90000EC
:1002A00010F1140F01DAEC20087011E000200A4967
:1002B00008700B4890F9000002F010FF08E00020E1
:1002C0000549087001200349087002F027FB00BFB0
:1002D00000BF10BD1D000020000000201C000020F9
:1002E0001E00002010B502F06DFB10BD1CB5354896
:1002F000007890B10120102333A2194600901E20EF
:1003000002F04EFD012010210323CDE900102F48FB
:1003100002783C2002F0FEFC4EE02A4800780028DB
:100320004AD103240FE0012004EBC4013622C2EBC2
:1003300041011C310090C8B2102322460A2102F06C
:1003400089FC601CC4B2072CEDDB0120102320A225
:10035000202100900A2002F023FD1F4890F90000A0
:10036000002815DA01201023582220210090322085
:1003700002F0D2FB012010210323CDE90010164822
:1003800090F90000424220213C2002F0C3FC13E01F
:1003900001201023202211460090322002F0BCFBE5
:1003A000012010210323CDE900100B4890F9002013
:1003B00020213C2002F0AEFC02F088FB0A2000F075
:1003C00029F81CBD1D00002049443A001C000020F3
:1003D0007365743A000000001E00002000BFFEE7B5
:1003E000704710B54FF4004000F07EF810BD10B516
:1003F000082000F079F810BD10B5102000F074F856
:1004000010BD10B5202000F06FF810BD72B600BF0F
:10041000FEE7000070B5044600F012FA06462546D5
:10042000681C10B104480078054400BF00F008FAC9
:10043000801BA842FAD370BD0C00002010B5044602
:10044000B4F5004F05D0082C03D0102C01D0202C7F
:1004500032D10420FFF7DEFF4FF40041174800F0CF
:10046000E1F930B916A003F03BF9012016490870F4
:1004700022E00821154800F0D5F930B914A003F0A6
:100480002FF902201049087016E010210F4800F0E3
:10049000C9F930B910A003F023F903200A49087004
:1004A0000AE02021094800F0BDF928B90CA003F0AA
:1004B00017F904200449087010BD0000000801402D
:1004C0004B6579310000000000000020000C014065
:1004D0004B657932000000004B6579330000000065
:1004E0004B6579340000000010B5044604480068EC
:1004F000204020B1024804602046FFF79FFF10BD56
:10050000140401402DE9F8470346002294466EE1A9
:100510004FF0010808FA02F4D1F8008008EA04005C
:10052000A0427DD1DFF8DCA2D1F80480A8EB0A0953
:10053000D0453AD014DCB8F1030F50D009DCB8F143
:10054000000F31D0B8F1010F1CD0B8F1020F49D122
:1005500020E0B8F1110F18D0B8F1120F42D11EE00F
:10056000B9F5881F25D006DCB9F5803F20D0B9F554
:10057000801F37D11AE0B9F5001F18D0B9F5041F54
:1005800030D117E0D1F80CC02DE0D1F80C8008F183
:10059000040C28E0D1F80C8008F1080C23E0D1F815
:1005A0000C8008F10C0C1EE000BF00BF00BF00BFB4
:1005B00000BF00BFD1F80880B8F1000F02D14FF0A2
:1005C000040C0BE0D1F80880B8F1010F03D14FF013
:1005D000080C1C6102E04FF0080C5C6103E04FF076
:1005E000000C00E000BF00BFFF2801D8984601E0E2
:1005F00003F104084646FF2802D84FEA820803E0C8
:10060000A2F108084FEA88084746D6F800804FF064
:100610000F0909FA07F928EA09080CFA07F900E0B6
:1006200088E048EA0908C6F80080D1F8048008F09C
:100630008058B8F1805F7DD100BFDFF8CC81D8F859
:10064000188048F00108DFF8C091C9F81880C84642
:10065000D8F8188008F00108CDF8008000BF00BF6E
:100660004FEAB9384FEA920958F829504FEA827890
:100670004FEA18794FF00F0808FA09F825EA08053B
:10068000DFF88881434502D14FF0000816E0DFF81B
:100690008081434502D14FF001080FE0DFF87481FB
:1006A000434502D14FF0020808E0DFF86C81434572
:1006B00002D14FF0030801E04FF004084FEA8279BD
:1006C0004FEA197908FA09F848EA0505DFF84C817C
:1006D0004FEA920948F82950D1F8048008F48018AC
:1006E000B8F5801F0AD1DFF83881D8F8008048EAD1
:1006F0000008DFF82C91C9F8008009E0DFF82081BC
:10070000D8F8008028EA0008DFF81491C9F80080C2
:10071000D1F8048008F40018B8F5001F10D1DFF8F4
:10072000008108F10408D8F8008048EA0008DFF8E2
:10073000F09000E05AE009F10409C9F800800DE0EA
:10074000DFF8DC8008F10408D8F8008028EA000807
:10075000DFF8CC9009F10409C9F80080D1F80480D1
:1007600008F40038B8F5003F0ED1DFF8B480A8F1E6
:100770000408D8F8008048EA0008DFF8A490A9F13E
:100780000409C9F800800DE0DFF89480A8F104089E
:10079000D8F8008028EA0008DFF88490A9F104095D
:1007A000C9F80080D1F8048008F48038B8F5803F9B
:1007B0000ED1DFF86C80A8F10808D8F8008048EA6C
:1007C0000008DFF85C90A9F10809C9F800800DE085
:1007D000DFF84C80A8F10808D8F8008028EA000863
:1007E000DFF83C90A9F10809C9F80080521CD1F843
:1007F000008028FA02F8B8F1000F7FF489AEBDE856
:10080000F8870000000011100010024000080140AD
:10081000000C01400010014000140140080001409C
:1008200008040140024693680B400BB1012000E030
:10083000002070470AB1016101E00B0403617047B9
:1008400001480068704700000400002070B50446AD
:100850000CB9012070BD94F83D0028B9002084F83F
:100860003C00204600F0FEFB242084F83D00206878
:10087000006820F00100216808602068006840F4EA
:100880000040216808602068006820F4004021686A
:10089000086000F0C1FD05465C496068884206D8E2
:1008A0005B48854201D2012007E0002005E059485D
:1008B000854201D2012000E00020012800D1C9E7D3
:1008C0005548B5FBF0F62068406820F03F00304303
:1008D000216848604D496068884201D8701C07E073
:1008E0004FF4967070434FF47A71B0FBF1F0401CF6
:1008F0002168096A21F03F010843216808624349E1
:100900006068884214D8681E61684900B0FBF1F045
:10091000401CC0F30B00042801D204203DE0681EF7
:1009200061684900B0FBF1F0401CC0F30B0034E0FB
:10093000A06838B9681E616801EB4101B0FBF1F0B5
:10094000401C0AE0681E616801EBC10202EB011164
:10095000B0FBF1F0401C40F48040C0F30B0008B93C
:1009600001201AE0A06848B9681E616801EB4101E6
:10097000B0FBF1F0401CC0F30B000CE0681E616896
:1009800001EBC10202EB0111B0FBF1F0401CC0F31E
:100990000B0040F4804040F400402168C9694CF6E7
:1009A000FF72914308432168C861D4E907010843F5
:1009B0002168096821F0C001084321680860D4E972
:1009C000031008432168896848F2FF3291430843C5
:1009D00021688860D4E9050108432168C96821F0CD
:1009E000FF0108432168C8602068006840F00100EA
:1009F0002168086000202064202084F83D00002049
:100A0000206384F83E0000BF24E70000A0860100B8
:100A100080841E0000093D0040420F002DE9F8438C
:100A20000446894616461F46DDF82080FFF708FF7A
:100A3000054694F83D0020287ED119230122514912
:100A40002046009501F015FE10B10220BDE8F883A4
:100A500000BF94F83C00012801D10220F6E70120F4
:100A600084F83C0000BF2068006800F0010028B94D
:100A70002068006840F00100216808602068006874
:100A800020F4006021680860212084F83D001020D7
:100A900084F83E000020206466626785608D2085B2
:100AA0003948E0622B4642464946204601F02EFC7A
:100AB00008B10120CAE700BF00200090206840690B
:100AC000009020688069009000BF00BF44E02A4683
:100AD0004146204601F0EEFE50B1206C042805D1BD
:100AE0002068006840F40070216808600120ADE7CC
:100AF000606A007821680861606A401C6062608DED
:100B0000401E6085208D401E208520684069C0F30E
:100B1000800070B1208D60B1606A00782168086142
:100B2000606A401C6062608D401E6085208D401EA2
:100B300020852A46414600E022E0204601F066FD7D
:100B400050B1206C042805D12068006840F4007082
:100B500021680860012079E7208D0028B7D120683E
:100B6000006840F4007021680860202084F83D008F
:100B7000002084F83E0000BF84F83C0000BF65E719
:100B8000022063E7020010000000FFFF2DE9FE4F86
:100B900004460F4690469946DDE90CAB0E9E0020B8
:100BA0000290FFF74DFE054694F83D00202872D1D3
:100BB00019230122CE492046009501F05AFD10B1BB
:100BC0000220BDE8FE8F00BF94F83C00012801D14F
:100BD0000220F6E7012084F83C0000BF206800688E
:100BE00000F0010028B92068006840F00100216889
:100BF00008602068006820F40060216808602220F6
:100C000084F83D00402084F83E0000202064C4F8B1
:100C100024A0A4F82AB0608D2085B648E0624B4637
:100C2000424639462046CDE9006501F0CFFB08B1C8
:100C30000120C6E7208D88B900BF00200190206800
:100C40004069019020688069019000BF00BF206862
:100C5000006840F40070216808604BE0208D012896
:100C60001AD12068006820F480602168086072B69C
:100C700000BF0020019020684069019020688069D1
:100C8000019000BF00BF2068006840F40070216838
:100C9000086062B62EE029E1208D022819D1206873
:100CA000006840F400602168086072B600BF002050
:100CB000019020684069019020688069019000BF20
:100CC00000BF2068006820F480602168086062B678
:100CD00010E02068006840F480602168086000BF70
:100CE000002001902068406901902068806901908F
:100CF00000BF00BFEBE0208D03287DD8208D0128A8
:100D000015D12A463146204601F08FFD08B1012059
:100D100057E720680069616A0870606A401C606279
:100D2000208D401E2085608D401E6085CFE0208D87
:100D300002282CD1334600226F492046009501F04D
:100D400098FC08B101203CE772B62068006840F4C6
:100D500000702168086020680069616A0870606A34
:100D6000401C6062208D401E2085608D401E608585
:100D700062B620680069616A0870606A401C60623F
:100D8000208D401E2085608D401E60859FE033468B
:100D9000002259492046009501F06BFC08B1012062
:100DA0000FE72068006820F480602168086072B650
:100DB00020680069616A0870606A401C6062208D6A
:100DC000401E2085608D401E60854C4800681921BA
:100DD000B0FBF1F04FF47A71B0FBF1F0C0EBC00062
:100DE00000EB8000029000BF0298401E0290029823
:100DF000A8B90020206300E039E0202084F83D00FD
:100E0000002084F83E00206C40F02000206462B690
:100E100000BF002084F83C0000BF0120D1E620681C
:100E20004069C0F380000028DED02068006840F4EC
:100E300000702168086020680069616A0870606A53
:100E4000401C6062208D401E2085608D401E6085A4
:100E500062B620680069616A0870606A401C60625E
:100E6000208D401E2085608D401E60852FE02A4623
:100E70003146204601F0D9FC08B10120A1E62068E6
:100E80000069616A0870606A401C6062208D401EC3
:100E90002085608D401E608520684069C0F3800019
:100EA000A8B1208D032805D12068006820F4806057
:100EB0002168086020680069616A0870606A401CE7
:100EC0006062208D401E2085608D401E6085208DD3
:100ED00000287FF410AF202084F83D00002084F823
:100EE0003E0000BF84F83C0000BF6AE6022068E6CE
:100EF000020010000000FFFF0400010010000020AD
:100F00002DE9FC5F04460F4690469946DDE90CAB9F
:100F10000E9EFFF795FC054694F83D0020287DD1F4
:100F2000192301224D492046009501F0A2FB10B182
:100F30000220BDE8FC9F00BF94F83C00012801D1CD
:100F40000220F6E7012084F83C0000BF206800681A
:100F500000F0010028B92068006840F00100216815
:100F600008602068006820F4006021680860212083
:100F700084F83D00402084F83E0000202064C4F83E
:100F800024A0A4F82AB0608D20853548E0624B4645
:100F9000424639462046CDE9006501F0C7FA08B15E
:100FA0000120C6E731E02A463146204601F082FCA6
:100FB00050B1206C042805D12068006840F400700E
:100FC000216808600120B4E7606A00782168086140
:100FD000606A401C6062208D401E2085608D401E2E
:100FE000608520684069C0F3800070B1208D60B1D9
:100FF000606A007821680861606A401C6062208D28
:10100000401E2085608D401E6085208D0028CAD13D
:101010002A463146204601F0F9FA00E01CE050B1C2
:10102000206C042805D12068006840F40070216815
:10103000086001207DE72068006840F400702168A6
:101040000860202084F83D00002084F83E0000BFA6
:1010500084F83C0000BF6CE702206AE70200100041
:101060000000FFFF10B586B00446002002900390F8
:101070000490059016492068884226D100BF154883
:10108000806940F00800134988610846806900F0D3
:101090000800019000BF00BF4FF440600290122092
:1010A00003900320059002A90B48FFF72BFA00BF1D
:1010B0000848C06940F480000649C8610846C06914
:1010C00000F48000019000BF00BF06B010BD00001A
:1010D0000058004000100240000C01400348006826
:1010E000034909780844014908607047040000205A
:1010F0000C00002010B50848006840F010000649B8
:101100000860032000F0A8F8002000F007F800F0C5
:101110002BF8002010BD00000020024070B50446EE
:101120000E4800784FF47A71B1FBF0F00C49096871
:10113000B1FBF0F5284600F0F9FB08B1012070BDC5
:10114000102C07D200222146501E00F047F8054817
:10115000046001E00120F2E70020F0E70C0000202D
:10116000100000200800002008B500BF1148806969
:1011700040F001000F4988610846806900F00100D5
:10118000009000BF00BF00BF0846C06940F080501B
:10119000C8610846C06900F08050009000BF00BFE1
:1011A00000BF0549486820F0E06040F000704860EA
:1011B00000BF08BD00100240000001400146084683
:1011C000002809DB00F01F0301229A4043099B001D
:1011D00003F1E023C3F8002100BF70472DE9F05F61
:1011E00080460D461646002702F08AFA0746394621
:1011F0002A46334601F00700C0F1070ABAF1040F8E
:1012000002D94FF0040A01E0C0F1070AD14600F10B
:10121000040ABAF1070F02D24FF0000A01E0A0F170
:10122000030AD4464FF0010A0AFA09FAAAF1010AA0
:101230000AEA020A0AFA0CFA4FF0010B0BFA0CFB4D
:10124000ABF1010B0BEA030B4AEA0B0421464046C3
:1012500002F05EFABDE8F09F00BF00F00702064B07
:1012600019684FF6FF031940044B0B4343EA022170
:10127000014B196000BF70470CED00E00000FA055B
:1012800070B504460D460CB9012070BD5A4800687F
:1012900000F00700A8420ED25748006820F007006F
:1012A0002843554908600846006800F00700A84236
:1012B00001D00120E9E7207800F0020002281DD1CA
:1012C000207800F00400042805D14C48406840F420
:1012D000E0604A494860207800F00800082805D1FD
:1012E0004648406840F4605044494860434840687C
:1012F00020F0F000A168084340494860207800F0E1
:10130000010078B36068012806D13C48006800F409
:10131000003090B90120B8E76068022806D137484C
:10132000006800F0007040B90120AEE73348006863
:1013300000F0020008B90120A7E73048406820F01B
:101340000300616808432D494860FFF779FA0646B3
:1013500009E0FFF775FA801B41F28831884202D913
:10136000032092E707E02548406800F00C00616820
:10137000B0EB810FEDD12048006800F00700A842D3
:101380000ED91D48006820F0070028431A4908605C
:101390000846006800F00700A84201D0012074E769
:1013A000207800F00400042807D11448406820F495
:1013B000E060E168084311494860207800F00800C7
:1013C000082808D10D48406820F46050216940EA9F
:1013D000C1000A49486000F03FF808494968C1F374
:1013E0000311074A515CC840064908600648006876
:1013F000FFF794FE002048E7002002400010024062
:101400006A39000810000020080000200148006828
:10141000704700001000002000B5FFF7F7FF0449F7
:101420004968C1F30221034A515CC84000BD000075
:10143000001002407A39000800B5FFF7E7FF0449C1
:101440004968C1F3C221034A515CC84000BD000095
:10145000001002407A39000870B5002100220024F3
:1014600000230020134D696801F00C05F5B1042D2F
:1014700002D0082D19D101E00F4819E00F4DC1F33A
:101480008346AB5D01F4803555B10A4D6D68C5F3F7
:1014900040450B4E725D084D5D43B5FBF2F402E032
:1014A000084D03FB05F4204602E000BF024800BFE0
:1014B00000BF70BD0010024000127A0058390008C9
:1014C0006839000800093D00F8B504460CB9012050
:1014D000F8BD207800F00100002878D0F848406876
:1014E00000F00C0004280CD0F548406800F00C0017
:1014F000082811D1F248406800F48030B0F5803FF0
:101500000AD1EF48006800F4003000285FD060681E
:1015100000285CD10120DBE700BF6068B0F5803FA8
:1015200006D1E748006840F48030E549086028E0CB
:10153000606858B9E248006820F48030E0490860EB
:101540000846006820F4802008601AE06068B0F562
:10155000A02F0BD1DA48006840F48020D8490860F9
:101560000846006840F4803008600AE0D44800680B
:1015700020F48030D24908600846006820F48020BA
:10158000086000BF606888B1FFF75AF9054606E0B9
:10159000FFF756F9401B642801D9032098E7C84893
:1015A000006800F400300028F2D010E0FFF748F99E
:1015B000054606E0FFF744F9401B642801D90320E3
:1015C00086E7BF48006800F400300028F2D1207898
:1015D00000F00200022857D1B948406800F00C0022
:1015E00050B1B748406800F00C00082818D1B44842
:1015F000406800F4803098B9B148006800F00200FB
:1016000020B12069012801D0012061E7AC480068C1
:1016100020F0F800616940EAC100A949086033E0A0
:101620002069E8B10120A7490860FFF709F90546DC
:1016300006E0FFF705F9401B022801D9032047E720
:101640009F48006800F002000028F2D09C48006823
:1016500020F0F800616940EAC1009949086013E090
:10166000002098490860FFF7EBF8054606E0FFF711
:10167000E7F8401B022801D9032029E790480068B9
:1016800000F002000028F2D1207800F008000828BD
:101690002DD1A069B8B101208B490860FFF7D0F8BF
:1016A000054606E0FFF7CCF8401B022801D90320CD
:1016B0000EE78348406A00F002000028F2D00120C3
:1016C00001F0F6FC13E000207F490860FFF7B8F84E
:1016D000054606E0FFF7B4F8401B022801D90320B5
:1016E000F6E67748406A00F002000028F2D1207840
:1016F00000F00400042873D100277148C06900F08D
:10170000805070B900BF6E48C06940F080506C498D
:10171000C8610846C06900F08050009000BF00BF5B
:1017200001276A48006800F48070B0B96748006813
:1017300040F4807065490860FFF782F8054606E0CE
:10174000FFF77EF8401B642801D90320C0E65F48FC
:10175000006800F480700028F2D000BFE068012823
:1017600006D15748006A40F001005549086227E059
:10177000E06858B95248006A20F0010050490862F8
:101780000846006A20F00400086219E0E0680528B5
:101790000BD14B48006A40F00400494908620846F2
:1017A000006A40F0010008620AE04548006A20F043
:1017B0000100434908620846006A20F004000862FC
:1017C00000BFE068A0B1FFF73BF8054609E0FFF76E
:1017D00037F8401B41F28831884202D9032077E66E
:1017E00022E03748006A00F002000028EFD012E043
:1017F000FFF726F8054608E0FFF722F8401B41F204
:101800008831884201D9032062E62D48006A00F041
:1018100002000028F0D1012F05D12948C06920F02D
:1018200080502749C86100BFE069C8B324484068B8
:1018300000F00C00082860D0E069022848D10020A0
:1018400020490866FEF7FCFF054606E0FEF7F8FFB4
:10185000401B022801D903203AE61948006800F02D
:1018600000700028F2D1206AB0F5803F07D11448FB
:10187000406820F40030A168084311494860D4E969
:10188000080108430E49496821F4741108430C49C2
:10189000486001200B490866FEF7D2FF054607E0C5
:1018A0003DE0FEF7CDFF401B022801D903200FE6E3
:1018B0000348006800F000700028F2D02FE000001C
:1018C000001002400000424280044242007000408A
:1018D000002014490866FEF7B3FF054606E0FEF750
:1018E000AFFF401B022801D90320F1E50E48006834
:1018F00000F000700028F2D111E0E069012800D169
:10190000E6E50948466806F48031206A814204D140
:1019100006F47011606A814201D00120D8E50020F0
:10192000D6E50000000042420010024070B50446B7
:101930002546681EB0F1807F01D301200FE0681EAC
:101940004FF0E02148610F214FF0FF3001F0E0FE41
:1019500000204FF0E021886107200861002070BD61
:101960007047704710B50346002200BF93F83C0053
:10197000012801D1022010BD012083F83C0000BFE6
:1019800022F0FF00CC6840EA040222F440708C6828
:1019900040EA040222F480604C6840EA040222F427
:1019A00000600C6840EA040222F480500C6940EAAE
:1019B000040222F400504C6940EA040222F4804000
:1019C000CC6940EA04021868426400BF002083F832
:1019D0003C0000BF00BFCEE730B502460B4600BF5B
:1019E00092F83C00012801D1022030BD012082F88C
:1019F0003C0000BF022082F83D0010684468106877
:101A0000816824F070041868044310684460104D25
:101A10001068A8420BD01068B0F1804F07D00D4D70
:101A20001068A84203D00C4D1068A84205D121F0DF
:101A300080015868014310688160012082F83D00F0
:101A400000BF002082F83C0000BF00BFCDE70000CF
:101A5000002C0140000400400008004010B504467E
:101A60000CB9012010BD94F83D0028B9002084F87D
:101A70003C00204600F026F8022084F83D00211D9D
:101A8000206801F0B7FB012084F8460000BF84F80D
:101A90003E0001213F2001554020015541200155C4
:101AA00000BF00BF012084F84200432001554420BC
:101AB00001554520015500BF012084F83D0000205C
:101AC000D0E7000038B504460D492068884215D19A
:101AD00000BF0C48806940F400600A4988610846EC
:101AE000806900F40060009000BF00BF0022012167
:101AF0001920FFF773FB1920FFF760FB38BD0000CA
:101B0000002C0140001002402DE9F04104460D4632
:101B1000002700BF94F83C00012802D10220BDE854
:101B2000F081012084F83C0000BF022084F83D00D1
:101B30002068866826F0770626F47F46206886604F
:101B40002868502833D00CDC202850D004DC002832
:101B50004BD0102851D149E0302849D040284CD1F1
:101B600039E060282DD0702807D0B0F5805F03D011
:101B7000B0F5005F41D10DE041E0D5E902136A689C
:101B8000206801F08AFB2068866846F077062068A6
:101B9000866034E0D5E902136A68206801F07DFBB5
:101BA0002068806840F480402168886027E0EA6807
:101BB0006968206801F042FC5021206801F078FB40
:101BC0001DE0EA686968206801F04BFC602120682C
:101BD00001F06EFB13E0EA686968206801F02EFCF2
:101BE0004021206801F064FB09E000BF00BF00BF96
:101BF0002968206801F05CFB01E0012700BF00BFFD
:101C0000012084F83D0000BF002084F83C0000BFA4
:101C1000384684E7704770B504462068C568206878
:101C2000066906F00200022819D105F00200022818
:101C300015D1401F21680861012020772068806944
:101C400000F0030018B12046FFF7E4FF05E020464E
:101C500000F0FCF8204600F039FA0020207706F06A
:101C60000400042819D105F00400042815D1C0434C
:101C700021680861022020772068806900F44070A4
:101C800018B12046FFF7C6FF05E0204600F0DEF859
:101C9000204600F01BFA0020207706F008000828F4
:101CA00019D105F00800082815D1C0432168086142
:101CB000042020772068C06900F0030018B1204696
:101CC000FFF7A8FF05E0204600F0C0F8204600F02E
:101CD000FDF90020207706F01000102819D105F03A
:101CE0001000102815D1C043216808610820207712
:101CF0002068C06900F4407018B12046FFF78AFFE1
:101D000005E0204600F0A2F8204600F0DFF90020B0
:101D1000207706F0010048B105F0010030B16FF006
:101D2000010021680861204600F0D2F906F0800029
:101D3000802809D105F08000802805D1C0432168A2
:101D400008612046FFF70CFE06F04000402809D14C
:101D500005F04000402805D1C043216808612046B5
:101D600000F0D4F906F02000202809D105F0200069
:101D7000202805D1C043216808612046FFF7F1FD06
:101D800070BD000010B586B004460020029003909C
:101D9000049005900E492068884216D100BF0D4876
:101DA000806940F004000B4988610846806900F0B2
:101DB0000400019000BF00BF88150290022003902C
:101DC000059002A90448FEF79DFB06B010BD000077
:101DD000002C014000100240000801402DE9F041B4
:101DE00004460E461546002700BF94F83C00012823
:101DF00002D10220BDE8F081012084F83C0000BF40
:101E000035B1042D09D0082D0CD00C2D14D10EE0C5
:101E10003146206801F056FA10E03146206801F0A2
:101E200081FA0BE03146206801F0B0FA06E0314655
:101E3000206801F0DFFA01E0012700BF00BF00BF0A
:101E4000002084F83C0000BF3846D3E7704710B547
:101E500004460CB9012010BD94F83D0028B90020BB
:101E600084F83C00204600F025F8022084F83D006C
:101E7000211D206801F0BEF9012084F8460000BF52
:101E800084F83E0001213F200155402001554120AA
:101E9000015500BF00BF012084F8420043200155D6
:101EA000442001554520015500BF012084F83D0024
:101EB0000020D0E770470000F0B504460D4600262C
:101EC00015B994F83E000BE0042D02D13F20005DCF
:101ED00006E0082D02D14020005D01E04120005DB8
:101EE000012801D00120F0BD1DB9022084F83E0078
:101EF0000EE0042D03D102213F20015508E0082DFA
:101F000003D102214020015502E002214120015568
:101F100035B1042D0BD0082D10D00C2D1CD114E0A0
:101F20002068C06840F002002168C86016E02068A0
:101F3000C06840F004002168C8600FE02068C068F5
:101F400040F008002168C86008E02068C06840F0E0
:101F500010002168C86001E0012600BF00BF76BB09
:101F600001222946206801F087F919492068884232
:101F700001D1012000E0002028B12068406C40F42D
:101F80000040216848641249206888420BD02068CC
:101F9000B0F1804F07D00F492068884203D00E4926
:101FA000206888420CD12068806800F00707062F5F
:101FB0000CD02068006840F001002168086005E04E
:101FC0002068006840F001002168086030468AE718
:101FD000002C0140000400400008004070B5044699
:101FE0000D46002635B1042D0BD0082D10D00C2D38
:101FF0001CD114E02068C06820F002002168C8608D
:1020000016E02068C06820F004002168C8600FE076
:102010002068C06820F008002168C86008E02068D7
:10202000C06820F010002168C86001E0012600BFF0
:1020300000BF002E46D100222946206801F01CF97D
:1020400021492068884201D1012000E0002090B1A0
:1020500000BF2068006A41F21111084050B92068A1
:10206000006A8910084028B92068406C20F40040BC
:102070002168486400BF00BF2068006A41F2111166
:10208000084050B92068006A8910084028B92068C3
:10209000006820F001002168086000BF1DB9012020
:1020A00084F83E000EE0042D03D101213F200155AC
:1020B00008E0082D03D101214020015502E0012153
:1020C00041200155304670BD002C01407047000092
:1020D00010B504460A49206888420FD109480068B3
:1020E000401C08490860084600680749096888429A
:1020F00004D301F037F800200249086010BD000049
:10210000002C01401800002014000020704710B57A
:1021100004460CB9012010BDA06900B100E000BF69
:1021200094F8410028B9002084F84000204600F0CF
:1021300029F8242084F841002068C06820F4005069
:102140002168C860204601F0D7F92068006920F4B2
:102150009040216808612068406920F02A002168C9
:1021600048612068C06840F400502168C8600020C1
:102170006064202084F8410084F8420000206063FD
:1021800000BFC8E710B586B0044600200290039057
:10219000049005901A49206888422ED100BF194842
:1021A000806940F48040174988610846806900F4DE
:1021B0008040019000BF00BF00BF0846806940F02A
:1021C000040088610846806900F00400019000BFA7
:1021D00000BF48150290022003900320059002A939
:1021E0000948FEF78FF94FF48060029000200390B9
:1021F000049002A90448FEF785F906B010BD00005E
:102200000038014000100240000801402DE9F84F5D
:1022100004460E46174699464FF0000A94F84100CE
:10222000202850D106B117B90120BDE8F88F002051
:102230006064212084F84100FEF702FB8246A784F7
:10224000E784A068B0F5805F04D1206910B900254B
:10225000B04602E035464FF000081EE0534600222B
:1022600080212046CDF8009001F0C4F920B1202053
:1022700084F841000320D8E745B9B8F80000C0F35E
:1022800008002168486008F1020803E02878216806
:1022900048606D1CE08C401EE084E08C0028DDD19D
:1022A0005346002240212046CDF8009001F0A2F9CB
:1022B00020B1202084F841000320B6E7202084F8D4
:1022C00041000020B1E70220AFE700BFFEE7014672
:1022D00008684069C0F38020B0B16FF480600A687C
:1022E000506100200863202081F83D00002081F823
:1022F0003E00086C40F00400086400BF002081F834
:102300003C0000BF012070470020FCE72DE9F843A6
:1023100004460D4617469846E66A082E04D0012E5C
:1023200002D016F5803F06D12068006840F4807026
:102330002168086008E0206B122805D12068006839
:1023400040F48070216808603B4600224FF0011184
:102350002046CDF8008000F08CF960B1206800685C
:1023600000F48070B0F5807F02D14FF400702064DB
:102370000320BDE8F8832069B0F5804F04D105F053
:10238000FE002168086112E005F44070F02141EA86
:10239000E0102168086143463A460B49204600F0A8
:1023A000C7F908B10120E4E7E8B2216808614346B3
:1023B0003A460549891F204600F0BAF908B10120C4
:1023C000D7E70020D5E70000080001002DE9F84319
:1023D00004460F4615469946DDE9088620680068E0
:1023E00040F48060216808602068006840F48070D4
:1023F00021680860434600224FF0011120460096F4
:1024000000F037F960B12068006800F48070B0F522
:10241000807F02D14FF4007020640320BDE8F88370
:1024200007F0FE0021680861334642463E492046D7
:1024300000F07EF908B10120F0E700BF0020009015
:1024400020684069009020688069009000BF00BF4C
:1024500032464146204600F02DFA50B1206C042847
:1024600005D12068006840F40070216808600120F0
:10247000D4E7B9F1010F03D1E8B22168086117E090
:10248000C5F307202168086132464146204600F026
:1024900011FA50B1206C042805D12068006840F47E
:1024A0000070216808600120B8E7E8B2216808617F
:1024B00032464146204600F0FDF950B1206C042818
:1024C00005D12068006840F4007021680860012090
:1024D000A4E72068006840F48070216808604346E3
:1024E00000224FF001112046009600F0C2F858B1CA
:1024F0002068006800F48070B0F5807F02D14FF44E
:1025000000702064032089E7F8B240F001002168E0
:102510000861334642460449204600F009F908B1F3
:1025200001207BE7002079E7020001002DE9F84354
:102530000446884615469946DDE908672068006824
:1025400040F4807021680860334600224FF001118A
:102550002046009700F08DF860B12068006800F414
:102560008070B0F5807F02D14FF4007020640320AA
:10257000BDE8F88308F0FE00216808613B4632465A
:102580002149204600F0D4F808B10120F0E700BF4F
:1025900000200090206840690090206880690090C9
:1025A00000BF00BF3A463146204600F083F950B1E3
:1025B000206C042805D12068006840F40070216870
:1025C00008600120D4E7B9F1010F03D1E8B2216816
:1025D000086117E0C5F30720216808613A463146D3
:1025E000204600F067F950B1206C042805D120681E
:1025F000006840F40070216808600120B8E7E8B284
:10260000216808610020B3E70200010070B50446AC
:102610000D46164625E02046FFF759FE08B1012079
:1026200070BD681CE8B1FEF70BF9801BA84200D80A
:10263000BDB920684069C0F3800090B900202063D4
:10264000202084F83D00002084F83E00206C40F0FB
:102650002000206400BF002084F83C0000BF01205F
:10266000DEE720684069C0F380000028D3D0002056
:10267000D6E72DE9F04104460D4617461E46DDF823
:10268000188038E0701CA8B3FEF7DAF8A0EB080059
:10269000B04200D876BBC5F3074001280AD12068B4
:1026A0004069A9B20840A9B2884201D101200BE0DB
:1026B000002009E020688069A9B20840A9B28842D8
:1026C00001D1012000E00020B84214D10020206395
:1026D000202084F83D00002084F83E00206C40F06B
:1026E0002000206400BF002084F83C0000BF0120CF
:1026F000BDE8F081FFE7C5F3074001280AD1206853
:102700004069A9B20840A9B2884201D101200BE07A
:10271000002009E020688069A9B20840A9B2884277
:1027200001D1012000E00020B842ABD00020DFE75B
:102730002DE9F04104460D4616461F4658E0206834
:102740004069C0F38020E8B12068006840F4007060
:10275000216808606FF48060216848610020206370
:10276000202084F83D00002084F83E00206C40F0DA
:102770000400206400BF002084F83C0000BF01205A
:10278000BDE8F081701C90B3FEF75AF8C01BB04250
:1027900000D866BBC5F3074001280AD1206840690C
:1027A000A9B20840A9B2884201D101200BE0002063
:1027B00009E020688069A9B20840A9B2884201D125
:1027C000012000E0002090B900202063202084F840
:1027D0003D00002084F83E00206C40F02000206482
:1027E00000BF002084F83C0000BF0120C8E7FFE7DD
:1027F000C5F3074001280AD120684069A9B2084002
:10280000A9B2884201D101200BE0002009E0206834
:102810008069A9B20840A9B2884201D1012000E034
:10282000002000288BD00020AAE770B504460D4692
:10283000164637E020684069C0F30010A0B16FF081
:1028400010002168486100202063202084F83D00AA
:10285000002084F83E00206C206400BF002084F833
:102860003C0000BF012070BDFDF7EAFF801BA842BD
:1028700000D8BDB920684069C0F3801090B900202D
:102880002063202084F83D00002084F83E00206C66
:1028900040F02000206400BF002084F83C0000BF0E
:1028A0000120E0E720684069C0F380100028C1D013
:1028B0000020D8E770B504460D46164625E02046B0
:1028C000FFF705FD08B1012070BD681CE8B1FDF7F8
:1028D000B7FF801BA84200D8BDB920684069C0F38B
:1028E000C01090B900202063202084F83D00002013
:1028F00084F83E00206C40F02000206400BF0020DF
:1029000084F83C0000BF0120DEE720684069C0F386
:10291000C0100028D3D00020D6E7000070B50024F6
:102920000CE0002506E00020074901EBC501085531
:10293000681CC5B2802DF6DB601CC4B2082CF0DB2D
:1029400000F0C4F870BD000008010020F0B5144686
:102950000B46CF1701EB5777C7F3C702CF1701EB31
:102960005777FF10A1EBC707FEB20123B340DDB2DA
:102970004CB1134B03EBC0039B5C2B43104F07EB95
:10298000C007BB541AE00E4B03EBC0039B5CDB4358
:102990000B4F07EBC007BB54094B03EBC0039B5C19
:1029A0002B43074F07EBC007BB54054B03EBC0039A
:1029B0009B5CDB43024F07EBC007BB54F0BD00003C
:1029C0000801002010B54FF44870FDF723FD0021E9
:1029D000AE2000F00BFA0021084600F007FA0021B3
:1029E000102000F003FA0021402000F0FFF9002140
:1029F000812000F0FBF90021CF2000F0F7F9002141
:102A0000A12000F0F3F90021C82000F0EFF9002127
:102A1000A62000F0EBF90021A82000F0E7F9002142
:102A20003F2000F0E3F90021D32000F0DFF900217E
:102A3000084600F0DBF90021D52000F0D7F900218D
:102A4000802000F0D3F90021D92000F0CFF9002137
:102A5000F12000F0CBF90021DA2000F0C7F90021C5
:102A6000122000F0C3F90021DB2000F0BFF90021A3
:102A7000402000F0BBF90021202000F0B7F9002130
:102A8000022000F0B3F900218D2000F0AFF9002101
:102A9000142000F0ABF90021A42000F0A7F90021D8
:102AA000A62000F0A3F9FFF739FF0021AF2000F0C6
:102AB0009DF910BD10B50246012000E050430B1EE9
:102AC000A1F10104E1B2F9D110BD000070B50024FC
:102AD0001CE004F1B001C8B2002100F087F9002128
:102AE000084600F083F90021102000F07FF900254E
:102AF00008E0084901EBC501085D012100F076F905
:102B0000681CC5B2802DF4DB601CC4B2082CE0DB6D
:102B100070BD0000080100202DE9FE4F07468846E1
:102B200092461C460197CDF80080082C02D14FF048
:102B300006091FE02046E31704EB5373DB10214620
:102B40004FEAE47C04EB5C7C4FEAEC0CA4EBCC0C8D
:102B5000BCF1000F02D04FF0010C01E04FF0000C6F
:102B60006344224604EBD27C4FEA6C0C03FB0CF36B
:102B700003F0FF09AAF12000C6B200255EE0082C90
:102B800007D106EB46002F4901EB400010F805B0D5
:102B90001DE00C2C07D106EB46002B4901EB800011
:102BA00010F805B013E0102C05D1284800EB0610F2
:102BB00010F805B00BE0182C07D106EBC60024492D
:102BC00001EB800010F805B001E0BDE8FE8F0020A9
:102BD00002901CE00BF0010028B1414638460C9AE7
:102BE000FFF7B4FE09E00C9808B9012000E00020CE
:102BF000024641463846FFF7A9FE4FEA6B0B08F143
:102C0000010000F0FF080298401CC0B20290029838
:102C10000828DFDB781CC7B2082C0BD004EBD4717A
:102C20004A100199791A8A4204D1019F009808300C
:102C3000C0B20090DDF80080681CC5B24D459EDB37
:102C400000BFC2E782390008AA3B00081E40000806
:102C50000E4600082DE9FC4F05460F4690461C46DF
:102C6000A946BA462046E21704EB5272D21021461A
:102C7000E31704EB5373DB10A4EBC3030BB1012385
:102C800000E000231A4462431FFA82FB00263AE068
:102C9000102C05D11E4800EB4810805D009001E02B
:102CA000BDE8FC8F002001901CE0009800F00100BE
:102CB00028B1394628460B9AFFF748FE09E00B98E1
:102CC00008B9012000E00020024639462846FFF7F7
:102CD0003DFE009840100090781CC7B20198401C3F
:102CE000C0B2019001980828DFDB681CC5B2A5EBD3
:102CF0000900A04204D14D460AF1080000F0FF0A85
:102D00005746701C86B25E45C2DB00BFC8E70000B4
:102D10006A5300082DE9FF4F82B0064691461F46D0
:102D2000DDE90F4A4FF0000B082C01D14FF0020BE8
:102D3000002530E0781B401EC1B20A20FFF7BAFE22
:102D4000B9FBF0F00A21B0FBF1F201FB1208B8F177
:102D5000000F0ED104EBD4710BEB610101FB056197
:102D6000C8B223463022CDE900A40399FFF7D4FE70
:102D70000FE004EBD4710BEB610101FB0561C8B2FC
:102D800008F13001CAB22346CDE900A40399FFF748
:102D9000C3FE681CC5B2BD42CCDB06B0BDE8F08FF7
:102DA0002DE9F84106460F4614461D46DDF81C8005
:102DB00013E0CDF8008022782B4639463046FFF7E5
:102DC000ABFE082D02D1B01DC6B205E0284605EBCA
:102DD000D07106EB6101CEB2641C2078202802DBA2
:102DE00020787E28E5DDBDE8F88100007CB504464A
:102DF0000D460DB9002000E040208DF804008DF84C
:102E000005406420022301AA782100900148FDF7C3
:102E100005FE7CBD2400002000B585B00020019097
:102E200002900390049000BF4748806940F0100072
:102E3000454988610846806900F01000009000BF95
:102E400000BF00BF0846806940F020008861084646
:102E5000806900F02000009000BF00BF00BF08465E
:102E6000806940F0040088610846806900F0040031
:102E7000009000BF00BF00BF0846806940F0080016
:102E800088610846806900F00800009000BF00BF1C
:102E9000002202212D48FDF7CDFC00224FF40071E5
:102EA0002B48FDF7C7FC0220019001200290002072
:102EB00003900220049001A92448FDF723FB4FF45E
:102EC00000400190234802900120039001A91F486F
:102ED000FDF718FB382001901E4802900120039056
:102EE00001A91B48FDF70EFB4FF400700190012073
:102EF0000290002003900320049001A91448FDF7DC
:102F000001FB002202210920FEF768F90920FEF7E3
:102F100055F9002202210A20FEF760F90A20FEF787
:102F20004DF9002202211720FEF758F91720FEF76D
:102F300045F9002202212820FEF750F92820FEF74B
:102F40003DF905B000BD000000100240000801403E
:102F5000000C01400000211010B50B480B4908601F
:102F60000B484860002109488160C1604FF48041EE
:102F70000161002141618161C1610162FDF766FC6F
:102F800008B1FDF743FA10BD0058004024000020AE
:102F9000A086010000B595B000201190129013900A
:102FA00014900F9010901C2108A8FDF7C4F8202160
:102FB0006846FDF7C0F82B482B4908604720486059
:102FC0000021294881604FF6FF71C1600021016135
:102FD00041618161FEF742FD08B1FDF717FA4FF438
:102FE0008050119011A92048FEF78EFD08B1FDF721
:102FF0000DFA1D48FEF72BFF08B1FDF707FA002078
:103000000F9010900FA91848FEF7E6FC08B1FDF7E5
:10301000FDF930200890002009900A900B900C9048
:103020000D900E90002208A90F48FEF7D7FE08B1B8
:10303000FDF7ECF9002000900190029003900490BD
:103040004FF4005005900020079069460648FEF7AF
:1030500089FC08B1FDF7DAF90348FEF793FE15B0D5
:1030600000BD0000002C01407800002010B50B4886
:103070000B4908604FF4E130486000210848816046
:10308000C16001610C21416100218161C161FFF7D3
:103090003EF808B1FDF7BAF910BD00000038014054
:1030A000C000002000BFFEE700BFFEE77047000041
:1030B00008B508490968C9084FF47A72B1FBF2F102
:1030C0004143009100BF00BF00994A1E00920029B1
:1030D000F9D108BD100000207047000070B504460B
:1030E00000BF4FF41C700D490968C86201460B48C7
:1030F000C16000BF002C01DD012000E0002005467A
:10310000201E01DB014600E041424FF4486251437A
:10311000034A1160284600F005F870BD78000020D1
:103120001400002010B50446224602210A48FDF78B
:1031300081FB012251020948FDF77CFB0848006829
:10314000C06840F0010006490968C86000210448D1
:10315000FEF7B2FE10BD000000080140000C014067
:103160007800002010B500210148FEF737FF10BDA0
:103170007800002010B5FDF7B1FF10BD00B58FB08D
:10318000282105A8FCF7D7FF14216846FCF7D3FFD8
:10319000012005900004069000200790012009906E
:1031A00002200C90C1030D914FF4E0110E9105A87F
:1031B000FEF78AF908B1FDF729F90F2000900220E7
:1031C0000190002002904FF4806003900020049052
:1031D00002216846FEF754F808B1FDF717F90FB061
:1031E00000BD704710B50248FEF715FD10BD000088
:1031F0007800002010B502681C4B984208D0B0F14E
:10320000804F05D01A4B984202D01A4B984203D1F6
:1032100022F070024B681A43144B984208D0B0F168
:10322000804F05D0124B984202D0124B984203D1E6
:1032300022F44072CB681A4322F080034C6943EABF
:10324000040202608B68C3620B688362074B98427A
:1032500001D10B69036301234361036903F0010397
:103260001BB1036923F00103036110BD002C014071
:10327000000400400008004030B501F01F050124A3
:1032800004FA05F3046A9C430462046A01F01F0512
:1032900002FA05F52C43046230BD30B50C46816856
:1032A00021F47F4142EA032525432943816030BD53
:1032B0000A46816821F0700142F0070319438160DA
:1032C0007047000030B5026A056A25F00105056205
:1032D0004368846924F0700424F003040D682C43CF
:1032E00022F002028D682A430D4DA84206D100BF8C
:1032F00022F00802CD682A4322F00402084DA842B9
:1033000007D123F4807323F400734D692B438D6937
:103310002B43436084614D684563026230BD000009
:10332000002C014030B5026A056A25F010050562DF
:103330004368846924F4E04424F440740D6844EA4A
:10334000052422F020028D6842EA05120E4DA842A3
:1033500007D100BF22F08002CD6842EA051222F0B8
:103360004002094DA84209D123F4806323F400638D
:103370004D6943EA85038D6943EA850343608461AF
:103380004D688563026230BD002C014030B5026A91
:10339000056A25F4807505624368C46924F07004E9
:1033A00024F003040D682C4322F400728D6842EA75
:1033B00005220F4DA84207D100BF22F40062CD685C
:1033C00042EA052222F48062094DA84209D123F481
:1033D000805323F400534D6943EA05138D6943EA92
:1033E00005134360C4614D68C563026230BD0000CF
:1033F000002C014030B5036A056A25F4805505624A
:103400004468C26922F4E04222F440720D6842EA44
:10341000052223F400538D6843EA0533064DA84284
:1034200004D124F480444D6944EA85144460C261A7
:103430004D680564036230BD002C014030B50B4679
:103440001446026A056A25F001050562816921F0CA
:10345000F00141EA041122F00A021A43816102627A
:1034600030BD30B50B461446026A056A25F01005DA
:103470000562816921F4704141EA043122F0A00221
:1034800042EA03128161026230BD00BF00BF0268E0
:103490000C3252E8002F22F4907102680C3242E89C
:1034A0000013002BF3D100BF00BF00BF026814322D
:1034B00052E8002F22F001010268143242E80013A2
:1034C000002BF3D100BF016B01290ED100BF00BF5B
:1034D00002680C3252E8002F22F0100102680C3210
:1034E00042E80013002BF3D100BF202180F84210E6
:1034F000002101637047000070B504462168096926
:1035000021F44051E2681143226811612269A168E7
:103510001143626941EA02052168C96841F20C62FF
:10352000914329432268D1602168496921F440719F
:10353000A2691143226851612D4A2168914202D14A
:10354000FDF77AFF01E0FDF767FF00EBC00101EB3B
:10355000001162689200B1FBF2F100EBC00202EBD5
:10356000001263689B00B2FBF3F26423B2FBF3F238
:1035700002EBC20303EB0212A1EB8201322202EB47
:1035800001116422B1FBF2F101F0F00100EBC00285
:1035900002EB001263689B00B2FBF3F26423B2FB00
:1035A000F3F201EB021200EBC00101EB00116368C2
:1035B0009B00B1FBF3F100EBC00303EB0013666863
:1035C000B600B3FBF6F36426B3FBF6F303EBC306D6
:1035D00006EB0313A1EB8301322303EB01116423F8
:1035E000B1FBF3F101F00F0111442268916070BD4D
:1035F000003801402DE9F84304460D461746984629
:10360000089E31E0701C70B3FDF71AF9A0EB0800BA
:10361000B04200D816B90320BDE8F8832068C0681E
:1036200000F00400F8B1802D1ED0402D1CD0206881
:103630000068C0F3C000B0B100BF00200090206857
:103640000068009020684068009000BF00BF2046DE
:10365000FFF71BFF0820606400BF002084F84000D3
:1036600000BF0120D8E7FFE7206800682840A84293
:1036700001D1012000E00020B842C3D00020CBE7F8
:1036800000BFFEE71FB504464FF47A70012103AA7C
:103690000B46CDE9002102902246A0210348FDF708
:1036A00075FA9DF80C0004B010BD00002400002045
:1036B00013B584B004464FF47A70012105AA0B4675
:1036C000CDE9002102902246A0210448FDF718FC14
:1036D0000A20FCF79FFE06B010BD00002400002069
:1036E0000FB4054B10B503A9044A029800F034F852
:1036F00010BC5DF814FB0000113900082000002008
:1037000002480068C0F30220704700000CED00E0A2
:1037100010B5002804DB0A07130E054A135406E00F
:103720000A07140E034A00F00F031B1FD45410BDE8
:1037300000E400E018ED00E002E008C8121F08C134
:10374000002AFAD170477047002001E001C1121F22
:10375000002AFBD1704700002DE9FF4F8BB09A463D
:103760000F460546002606E025280BD052460D9947
:1037700090476D1C761C28780028F5D10FB0304694
:10378000BDE8F08F0024A0460122604900E0044318
:1037900015F8013F203B02FA03F00842F7D12878E0
:1037A0002E2817D115F8010F44F004042A280ED052
:1037B0006FF02F022878A0F1300109290AD808EB10
:1037C000880102EB410100EB01086D1CF2E757F89C
:1037D000048B6D1C287869283ED006DC0028CDD0EB
:1037E00063280BD0642804D136E0732810D07528E4
:1037F0004BD052460D999047761C85E017F8040B84
:103800008DF8000000208DF80100E946012003E05A
:1038100057F8049B4FF0FF3061074FF0000401D4CC
:103820000AE0641C44450DDA8442FADB19F80410FE
:103830000029F6D106E0641C8442FCDB19F8041070
:103840000029F8D1264404E019F8010B52460D99DD
:103850009047641EF8D257E001CF4FF00A0B0028C2
:1038600002DA40422D2102E0210504D52B218DF8FA
:103870002410012103E0E10705D02021F7E70DF135
:10388000200908910CE00021F9E701CF4FF00A0B65
:10389000F9E75946FCF75AFC01F1300209F8012D0D
:1038A0000028F6D1ADEB090000F1200B600701D430
:1038B0004FF00108D84502DDA8EB0B0000E0002026
:1038C0008046002406E009A85246005D0D99904705
:1038D000641C761C08988442F5DB04E030205246D4
:1038E0000D999047761CB8F10001A8F10108F5DCAC
:1038F00005E019F8010B52460D999047761CBBF173
:103900000001ABF1010BF4DC6D1C34E70928010068
:1039100013B50C464FF6FF73012269460248FEF7C5
:1039200075FC00981CBD0000C0000020FDF7E2FB04
:10393000FFF724FCFFF770FAFFF70EFBFFF796FB8B
:10394000FFF728FBFCF72AFCFCF7CCFC03E0FCF7B4
:10395000CDFCFCF745FCFAE702030405060708095D
:103960000A0B0C0D0E0F10100102000000000000E9
:10397000000001020304060708090000000001021C
:1039800003040000000000000000002F0000000001
:103990000700070000147F147F1400242A7F2A12D6
:1039A00000626408132300364955225000000503C5
:1039B000000000001C224100000041221C000014F5
:1039C000083E08140008083E0808000000A0600037
:1039D00000080808080800006060000000201008C7
:1039E0000402003E5149453E0000427F4000004233
:1039F00061514946002141454B31001814127F1096
:103A0000002745454539003C4A49493000017109C4
:103A1000050300364949493600064949291E000078
:103A2000363600000000563600000008142241001F
:103A3000001414141414000041221408000201514F
:103A4000090600324959513E007C1211127C007F58
:103A500049494936003E41414122007F4141221CF3
:103A6000007F49494941007F09090901003E414958
:103A7000497A007F0808087F0000417F410000204C
:103A800040413F01007F08142241007F40404040F8
:103A9000007F020C027F007F0408107F003E41413E
:103AA000413E007F09090906003E4151215E007F29
:103AB000091929460046494949310001017F0101A0
:103AC000003F4040403F001F2040201F003F403843
:103AD000403F006314081463000708700807006182
:103AE0005149454300007F41410000552A552A5560
:103AF000000041417F0000040201020400404040F8
:103B00004040000001020400002054545478007F1B
:103B10004844443800384444442000384444487FF2
:103B200000385454541800087E0901020018A4A457
:103B3000A47C007F080404780000447D400000401D
:103B400080847D00007F102844000000417F4000F9
:103B5000007C04180478007C08040478003844448D
:103B6000443800FC242424180018242418FC007C69
:103B70000804040800485454542000043F444020E2
:103B8000003C4040207C001C2040201C003C403079
:103B9000403C004428102844001CA0A0A07C004405
:103BA00064544C4414141414141400000000000055
:103BB0000000000000000000FC0000000000020007
:103BC0000000000C020C020000000000000090D079
:103BD000BCD0BC900003000300001824FE448C00FD
:103BE0000302070201001824D8B04C800003000132
:103BF0000201C038E438E0000102020102020806B6
:103C000000000000000000000000000000F80402B6
:103C1000000000010204000204F800000004020198
:103C200000009060F860900000000100000020207B
:103C3000FC20200000000100000000000000000047
:103C400008060000000020202020200000000000C6
:103C500000000000000000000002000000000080E2
:103C6000601C0200040300000000F8040404F800D3
:103C70000102020201000008FC0000000002030231
:103C80000000188444241800030202020200080401
:103C90002424D80001020202010040B088FC800008
:103CA0000000000302003C242424C400010202029C
:103CB0000100F824242CC0000102020201000C04BF
:103CC000E41C0400000003000000D8242424D800D1
:103CD00001020202010038444444F80000030202D9
:103CE00001000000100000000000020000000000C1
:103CF00020000000000006000000002050880402A0
:103D000000000000010290909090900000000000E0
:103D10000000000204885020000201000000180486
:103D2000C4241800000002000000F804E494F80025
:103D300001020202020000E09CF080000203000089
:103D4000030204FC2424D800020302020100F80448
:103D500004040C0001020202010004FC0404F80047
:103D600002030202010004FC24740C00020302029C
:103D7000030004FC24740C00020302000000F0089D
:103D80000444CC4000010202010004FC2020FC0499
:103D90000203000003020404FC0404000202030204
:103DA0000200000404FC040406040403000004FCF4
:103DB00024D00C0402030200030204FC04000000EF
:103DC000020302020203FC3CC03CFC0003000300AF
:103DD000030004FC30C4FC04020302000300F804E6
:103DE0000404F80001020202010004FC242418006B
:103DF000020302000000F8848404F80001020207B4
:103E0000050004FC24649800020302000302182445
:103E100024448C000302020201000C04FC040C0088
:103E200000020302000004FC0000FC040001020286
:103E30000100047C80E01C040000030000001CE082
:103E40003CE01C00000300030000049C609C040094
:103E5000020300030200041CE01C04000002030231
:103E600000000C84641C0400020302020300000032
:103E7000FE020200000007040400000E30C0000033
:103E8000000000010200000202FE0000000404071E
:103E90000000000402040000000000000000000018
:103EA00000000000080808080808000002000000E0
:103EB0000000000000000040A0A0C00000010202BD
:103EC000030204FC2020C00000030202010000C025
:103ED0002020600000010202020000C02024FC003B
:103EE00000010202030200C0A0A0C0000001020203
:103EF00002000020F8242404000203020200004013
:103F0000A0A0602000070A0A0A0404FC2020C000C8
:103F10000203020003020020E4000000000203028A
:103F20000000000020E4000008080807000004FC6E
:103F300080E020200203020003020404FC000000D1
:103F4000020203020200E020E020C00003000300A0
:103F5000030020E02020C00002030200030200C092
:103F60002020C00000010202010020E02020C0004B
:103F7000080F0A02010000C02020E0000001020A30
:103F80000F0820E040202000020302000000006033
:103F9000A0A020000002020203000020F820000080
:103FA00000000102020020E00020E0000001020207
:103FB000030220E0208060200000030100006080F8
:103FC000E0806000000300030000206080602000AB
:103FD00002030003020020E020806020080807019F
:103FE00000000020A0602000000203020200000088
:103FF00020DE0200000000070400000000FF0000B7
:104000000000000F00000002DE2000000004070096
:104010000000020102040402000000000000000091
:104020000000000000000000000000000000000090
:1040300000F8000000000000003330000000001015
:104040000C06100C0600000000000000000040C03C
:104050007840C0784000043F04043F04040000702E
:1040600088FC08300000001820FF211E0000F00826
:10407000F000E018000000211C031E211E0000F0CB
:104080000888700000001E21232419272110101613
:104090000E00000000000000000000000000000012
:1040A00000E0180402000000000718204000000291
:1040B0000418E00000000040201807000000404005
:1040C00080F0804040000202010F01020200000067
:1040D00000F0000000000101011F010101000000CB
:1040E00000000000000080B0700000000000000030
:1040F00000000000000000010101010101010000B9
:10410000000000000000003030000000000000004F
:10411000000080601804006018060100000000E044
:1041200010080810E000000F102020100F000010F1
:1041300010F8000000000020203F20200000007048
:104140000808088870000030282422213000003040
:104150000888884830000018202020110E00000038
:10416000C02010F8000000070424243F240000F8B9
:104170000888880808000019212020110E0000E09E
:10418000108888180000000F112020110E00003840
:104190000808C83808000000003F00000000007058
:1041A000880808887000001C222121221C0000E0E1
:1041B00010080810E0000000312222110F0000005A
:1041C00000C0C0000000000000303000000000000F
:1041D000008000000000000080600000000000007F
:1041E0008040201008000001020408102000404018
:1041F000404040404000040404040404040000085B
:10420000102040800000002010080402010000700F
:1042100048080808F0000000003036010000C030F7
:10422000C828E810E0000718272423140B0000001A
:10423000C038E0000000203C23020227382008F8A4
:10424000888888700000203F202020110E00C03098
:10425000080808083800071820202010080008F86F
:1042600008080810E000203F202020100F0008F868
:104270008888E8081000203F20202320180008F834
:104280008888E8081000203F200003000000C030AC
:1042900008080838000007182020221E020008F82D
:1042A00008000008F808203F210101213F200008F4
:1042B00008F8080800000020203F2020000000002F
:1042C0000808F8080800C08080807F00000008F817
:1042D00088C028180800203F20012638200008F850
:1042E000080000000000203F20202020300008F8B7
:1042F000F800F8F80800203F003F003F200008F8D1
:1043000030C00008F808203F200007183F00E010E8
:1043100008080810E0000F10202020100F0008F8F7
:1043200008080808F000203F210101010000E0100A
:1043300008080810E0000F18242438504F0008F82F
:10434000888888887000203F2000030C302000708F
:104350008808080838000038202121221C0018088D
:1043600008F8080818000000203F2000000008F8A6
:1043700008000008F808001F202020201F000878EF
:10438000880000C83808000007380E010000F8084F
:1043900000F80008F800033C0700073C0300081879
:1043A00068808068180820302C03032C30200838DF
:1043B000C800C83808000000203F20000000100896
:1043C0000808C838080020382621202018000000DE
:1043D00000FE020202000000007F40404000000C8E
:1043E00030C000000000000000010638C0000002DC
:1043F0000202FE000000004040407F00000000007C
:10440000040202020400000000000000000000009E
:10441000000000000000808080808080808000029A
:104420000204000000000000000000000000000086
:104430008080808000000019242222223F2008F87A
:10444000008080000000003F112020110E000000BD
:10445000008080800000000E11202020110000004C
:1044600000808088F800000E112020103F200000FE
:10447000808080800000001F222222221300008002
:1044800080F0888888180020203F2020000000004D
:10449000808080808000006B94949493600008F882
:1044A000008080800000203F210000203F2000800D
:1044B0009898000000000020203F2020000000000D
:1044C00000809898000000C08080807F000008F87D
:1044D000000080808000203F24022D302000000852
:1044E00008F8000000000020203F2020000080800D
:1044F000808080808000203F20003F20003F80801F
:10450000008080800000203F210000203F2000002C
:10451000808080800000001F202020201F008080DD
:1045200000808000000080FFA12020110E0000000C
:10453000008080808000000E112020A0FF808080FD
:1045400080008080800020203F21200001000000AA
:10455000808080808000003324242424190000807F
:1045600080E0808000000000001F2020000080808C
:10457000000000808000001F202020103F2080804D
:1045800080000080808000010E30080601008080DD
:104590000080008080800F300C030C300F00008002
:1045A0008000808080000020312E0E31200080802D
:1045B00080000080808080818E701806010000805D
:1045C0008080808080000021302C2221300000007B
:1045D0000000807C020200000000003F404000001C
:1045E0000000FF00000000000000FF0000000002CB
:1045F000027C800000000040403F000000000006F8
:10460000010102020404000000000000000000009C
:10461000000000000000000000000000000000009A
:10462000000000000000000000000000000000008A
:1046300000000000000000F0F0F0000000000000AA
:10464000000000017F010000000000000000001CCD
:104650001C1C0000000000008060301C8C60301CBE
:104660000C0000000000000000000000000000003E
:1046700000000000000000000000000000E000005A
:10468000000000E000000086E69F86868686E69FA2
:10469000860000011F01010101011F01010000004E
:1046A00080C06020F820E0C00000000003070C1864
:1046B000FF70E18100000000070F10107F100F074E
:1046C00000008060206080000000E02000000F30CB
:1046D00020309F70DC371030C0000000100E030047
:1046E0000718101807000000C02020E0C0000000DC
:1046F000000080E01F38E88703C43C040000070F77
:104700001810100B070D1010080000808C4C38009A
:104710000000000000000000000000000000000099
:104720000000000000000000000000000000000089
:104730000000000080E0300804000000000000FEDF
:10474000FF0100000000000000000000030F18201F
:10475000400000040830E08000000000000000007D
:10476000000001FFFE0000000000004020180F03C1
:10477000000000000000000000000000C000000079
:104780000000004266663C18FF183C666642000066
:104790000000000003000000000000000000000016
:1047A000800000000000001010101010FF1010100A
:1047B00010100000000000000300000000000000D6
:1047C00000000000000000000000000000000000E9
:1047D00000000000000000808C4C38000000000049
:1047E00000000000000000000000000000000010B9
:1047F0001010101010101010100000000000000029
:1048000000000000000000000000000000000000A8
:104810000000000000000000000000000000000098
:104820001C1C1C0000000000000000000000000034
:104830000000E0380C000000000080701C03000045
:1048400000000060380E01000000000000000000C1
:1048500080C060202060C080000000FEFF010000DA
:10486000000001FFFE000001070E181010180E07CF
:1048700001000000808080C0E00000000000000017
:10488000000000FFFF000000000000001010101FDB
:104890001F10101000000080402020202060C080E9
:1048A000000000030300804020381F070000001CA8
:1048B0001A1918181818181F00000080C02020208E
:1048C00060C080000000000303001010182FE78074
:1048D000000000070F10101010180F070000000054
:1048E00000000000C0E0F000000000C0B088868139
:1048F00080FFFF808000000000000010101F1F10CC
:1049000010000000E0606060606060600000000017
:104910003F1008080818F0E0000000070B10101006
:10492000101C0F030000000080C040202020E0C0C9
:10493000000000FCFF211008080818F0E00000014A
:10494000070C18101010080F03000000C0E0606092
:10495000606060E06000000003000000E0180700F5
:10496000000000000000001F1F0000000000008089
:10497000C0602020202060C080000087EF2C181825
:10498000303068CF830000070F0810101010180F88
:1049900007000000C0C020202020C0800000001FB1
:1049A0003F604040402010FFFE0000000C1C101033
:1049B00010080F03000000000000000000000000CD
:1049C000000000000000000E0E0E000000000000BD
:1049D0000000001C1C1C0000000000000000000083
:1049E00000000000000000000000000C0C000000AF
:1049F0000000000000000058380000000000000027
:104A000000000000008040201000000010284482B8
:104A10000100000000000000000000000102040886
:104A200010000000000000000000000000000084F2
:104A300084848484848484848400000000000000D2
:104A40000000000000000000102040800000000076
:104A50000000000000000000018244281000000057
:104A60001008040201000000000000C02020101007
:104A7000101030E0C0000003030000F010080C0725
:104A80000300000000001C1C1C00000000000000CF
:104A900000C0406020202040C00000FCFF01F00E5C
:104AA00003C1FE03807F0001070E081111101109D8
:104AB00004020000000080E0E000000000000000B0
:104AC000807C4340477FF880000010181F100000D2
:104AD0000000131F1C1020E0E02020202060C08078
:104AE000000000FFFF10101010182FE78000101FAB
:104AF0001F1010101010180F0700000080C0402079
:104B000020202060E00000FCFF0100000000000009
:104B100001000001070E181010100804030020E027
:104B2000E02020202040C080000000FFFF000000A7
:104B3000000001FFFE00101F1F10101018080E07C4
:104B4000010020E0E020202020202060800000FFE5
:104B5000FF101010107C00000000101F1F1010101C
:104B600010101018060020E0E020202020206060B7
:104B7000800000FFFF101010107C00000100101FCB
:104B80001F100000000000000000000080C0602036
:104B9000202040E0000000FCFF0100004040C0C1B8
:104BA00040400001070E181010100F0F000020E009
:104BB000E0200000000020E0E02000FFFF101010C7
:104BC000101010FFFF00101F1F1000000000101F2A
:104BD0001F100000202020E0E02020200000000026
:104BE000000000FFFF000000000000001010101F78
:104BF0001F101010000000000000202020E0E02026
:104C0000202000000000000000FFFF000000006006
:104C1000E0808080C07F3F00000020E0E0200000B6
:104C200020A06020200000FFFF30187CE3C00000BF
:104C30000000101F1F10000001131F1C181020E09F
:104C4000E020000000000000000000FFFF00000066
:104C5000000000000000101F1F101010101010188E
:104C6000060020E0E0E000000000E0E0E02000FFBF
:104C7000013FFEC0E01E01FFFF00101F1000031FD8
:104C80000300101F1F1020E0E0C000000000002003
:104C9000E02000FF0003071C78E08000FF00101FE9
:104CA000100000000000030F1F00000080C0602003
:104CB0002060C080000000FEFF010000000000FF37
:104CC000FE000001070E181010180C07010020E06C
:104CD000E0202020202060C0800000FFFF20202056
:104CE0002020301F0F00101F1F10000000000000C8
:104CF0000000000080C060202060C080000000FE36
:104D0000FF010000000000FFFE000001070E11116E
:104D1000133C7C67210020E0E0202020202060C0A0
:104D2000800000FFFF101030F0D0080F0700101FA8
:104D30001F10000000030F1C10100080C060202016
:104D400020204040E00000070F0C1818303060E0D1
:104D50008100001F0C0810101010180F0700806051
:104D6000202020E0E020202060800100000000FFE3
:104D7000FF000000000100000000101F1F100000D5
:104D8000000020E0E020000000000020E02000FF04
:104D9000FF00000000000000FF0000070F181010C7
:104DA0001010100807002060E0E02000000020E064
:104DB00060200000077FF88000807C030000000076
:104DC0000000071F1C070000000020E0E02000E0BA
:104DD000E0200020E0200007FFF8E01FFFFCE01FBC
:104DE00000000000031F0300011F0300000000205B
:104DF00060E0A0000020E0602000000000038F7C45
:104E0000F8C6010000000010181E130001171F183B
:104E100010002060E0E02000000020E060200000A2
:104E200001073EF8E0180700000000000010101F06
:104E30001F101000000000806020202020A0E0E073
:104E4000200000000000C0F03E0F03000000001032
:104E50001C1F17101010101806000000000000FCA6
:104E60000404040404000000000000FF000000002F
:104E7000000000000000007F404040404000000073
:104E800010E0000000000000000000000000031C13
:104E900060800000000000000000000000030C70B3
:104EA000800000000404040404FC00000000000072
:104EB0000000000000FF00000000000040404040F3
:104EC000407F0000000000000010080C040C0810D7
:104ED00000000000000000000000000000000000D2
:104EE00000000000000000000000000000000000C2
:104EF00000000000000000000000000000000000B2
:104F000000008080808080808080808080800000A1
:104F10000004040808000000000000000000000079
:104F20000000000000000000000000000000000081
:104F30000000000000000000000000000000000071
:104F400098D844642424FCF80000000F1F181010A7
:104F500010081F1F10180020E0F0000000000000E3
:104F600000000000FFFF180804040CF8F000000027
:104F70001F0F18101010180F030000000000000091
:104F800000000000000000E0F8180404043C3800B1
:104F9000000000030F0C10101010080600000000A5
:104FA000000000000020E0F0000000E0F81C040415
:104FB0000408FFFF000000030F18101010081F0F57
:104FC00008000000000000000000000000000000D9
:104FD000E0F8484444444C7870000000030F0C187B
:104FE0001010100804000000000080C0602020E0C5
:104FF000C00000040404FFFF0404040400000000D7
:1050000010101F1F10101000000000000000000012
:10501000000000000000000070F88C04048CF8749C
:10502000040C007076CF8D8D8D89C87870000020BB
:10503000E0F000000000000000000000FFFF080496
:105040000404FCF8000000101F1F100000101F1FB8
:105050001000000000000060600000000000000080
:10506000040404FCFC000000000000001010101FED
:105070001F10101000000000000000000060600021
:10508000000000000000040404FCFC00000000001C
:10509000C0C08080C07F3F0000000020E0F0000022
:1050A0000000000000000000FFFF80C0F41C0404AA
:1050B000000000101F1F1100031F1C101000000033
:1050C000202020E0F000000000000000000000FFB1
:1050D000FF000000000000001010101F1F10101033
:1050E000000000000000000000000000000004FCC0
:1050F000FC0804FCFC0804FCFC00101F1F10001F2F
:105100001F10001F1F100000000000000000000022
:1051100000000004FCFC08080404FCF80000001077
:105120001F1F100000101F1F1000000000000000D3
:1051300000000000000000E0F0180C04040C18F05F
:10514000E00000030F0C101010100C0F0300000003
:10515000000000000000000000000004FCFC080447
:1051600004040CF8F0000080FFFF889010101C0F62
:10517000030000000000000000000000000000E04C
:10518000F81C04040408F8FC000000030F181010B9
:105190009088FFFF80000000000000000000000079
:1051A0000000040404FCFC100804040C0C001010A3
:1051B000101F1F1010100000000000000000000071
:1051C00000000000000000003078CCC48484840C0F
:1051D0001C0000001E1810101011190F060000000E
:1051E000000000C000000000000000040404FFFFF5
:1051F000040404000000000000000F1F1010100C39
:10520000000000000000000000000000000000049A
:10521000FCFE00000004FCFE000000000F1F181040
:1052200010081F0F08000000000000000000000030
:10523000000000040C3CFCC40000C43C0C04000052
:105240000000010F1E0E0100000000000000000021
:10525000000000000000043CFCC400E47CFC8480EE
:105260007C040000071F070000071F070000000064
:10527000000000000000000000000004041C7CE4AA
:10528000C0341C0404000010101C1601131F1C184D
:1052900010000000000000000000000000000004FA
:1052A0000C3CFCC400C43C0404000000C080C137B6
:1052B0000E010000000000000000000000000000DF
:1052C000000000001C0404C4F47C1C040000000066
:1052D000101C1F17111010180E0000000000000015
:1052E00000F80C04000000000000001028EF00008F
:1052F0000000000000000000003F604000000000CF
:1053000000000000FF00000000000000000000009E
:10531000FF0000000000000000000000FF0000008F
:1053200000000000040CF800000000000000000075
:105330000000EF28100000000000000040603F0067
:1053400000000000000000180602020408102020DF
:105350003008000000000000000000000000000015
:10536000000000000000000000000000E2242820EF
:10537000203F20202824E20000000000FF00001F42
:105380001111111F40807F00000004E45C44C40040
:10539000404444447F4444444000013F10103F00D7
:1053A000404444447F4444444000001088844320E7
:1053B000100C1020418284080000010100FE4242CE
:1053C0004242424242FE000101000000F888888803
:1053D00088FF88888888F800000000001F080808F7
:1053E000087F888888889F80F0001010D0FF901078
:1053F00000FE020202FE00000000040300FF008322
:10540000601F0000003F40407800080808F80808C6
:1054100000F2121AD61212F202001030100F080811
:10542000804F20180710204F80000000FE2222220B
:10543000222222222222FE0000000000FF424242DD
:10544000424242424242FF00000000006C54000809
:1054500000000020240000003837000890540008A5
:105460002400002064090000483700080000000004
:1054700000000000100000000100000000127A008F
:10548000000000000000000001000000000000001B
:04000005080000ED02
:00000001FF
